:020000022000DC
:10600000000004201178030051780300CDED030057
:10601000557803005778030059780300000000000A
:1060200000000000000000000000000001D203009A
:106030005D7803000000000021D2030061780300B6
:1060400071D30300637803006378030091090300B0
:10605000637803006378030031AA030063780300C8
:1060600063780300637803006378030063780300B8
:1060700063780300637803006378030063780300A8
:106080006378030059CF0300697703006378030046
:106090006378030063780300A5EA020063780300D5
:1060A0006378030063780300637803006378030078
:1060B0006378030063780300000000000000000024
:1060C0006378030063780300637803005DD4030002
:1060D000637803006378030063780300A9E9030091
:1060E0006378030063780300637803000000000016
:1060F000000000006378030000000000D5D4030016
:10610000000000000000000000000000000000008F
:10611000000000000000000000000000000000007F
:10612000000000000000000000000000000000006F
:10613000000000000000000000000000000000005F
:10614000000000000000000000000000000000004F
:10615000000000000000000000000000000000003F
:10616000000000000000000000000000000000002F
:10617000000000000000000000000000000000001F
:10618000000000000000000000000000000000000F
:1061900000000000000000000000000000000000FF
:1061A00000000000000000000000000000000000EF
:1061B00000000000000000000000000000000000DF
:1061C00000000000000000000000000000000000CF
:1061D00000000000000000000000000000000000BF
:1061E00000000000000000000000000000000000AF
:1061F000000000000000000000000000000000009F
:10620000F1EE103A43F08073E1EE103A704700BFB0
:1062100010B5054C237833B9044B13B10448AFF3E0
:1062200000800123237010BDC06300200000000027
:10623000786E040008B5034B1BB103490348AFF364
:10624000008008BD00000000C4630020786E0400D8
:10625000154B002B08BF134B9D46A3F5803A002138
:106260008B460F461348144A121A19F099FC0F4B2B
:10627000002B00D098470E4B002B00D098470020F1
:10628000002104000D000D48002802D00C48AFF397
:10629000008019F01BFC2000290018F017FC19F0F1
:1062A000EFFB00BF00000800000004200000000019
:1062B00000000000C063002078C100200000000042
:1062C000000000000020704710B50A48012109F0C5
:1062D000F9FC0848012109F0BFFD0648064909F00C
:1062E0003DFDBDE810400348044B0022042109F0A5
:1062F00025BD00BFA0640020F04504003832040032
:1063000038B5044600F10805D4F8B430284698475B
:106310004FF6FD73984201D9012038BD0346B4F809
:10632000BA20B4F8B810284609F0D0FC94F89030A0
:10633000032BF1D8DFE803F0140E0802B4F8BA30EA
:10634000181AA4F8BA00E7E7B4F8B830181AA4F895
:10635000B800E1E7B4F8BA301844A4F8BA00DBE7B3
:10636000B4F8B8301844A4F8B800D5E72DE9F047E0
:10637000002A4ED0DFF8A49004460D468F18002660
:1063800000F108084FF6FD7A03E00120BD42064403
:1063900020D0236815F8011B1B684B4515D1D4F894
:1063A000B430404698475045EFD80346B4F8BA2079
:1063B000B4F8B810404609F089FC94F89030032BEB
:1063C000E3D8DFE803F01F18110A20469847BD42C2
:1063D0000644DED13046BDE8F087B4F8BA30181A6A
:1063E000A4F8BA000120D1E7B4F8B830181AA4F81C
:1063F000B8000120CAE7B4F8BA301844A4F8BA00CB
:106400000120C3E7B4F8B8301844A4F8B80001205C
:10641000BCE716463046BDE8F08700BF01630200C6
:106420002DE9F0412F4C304FDFF8D4808EB00D466F
:106430002046012109F046FC2046002109F00CFD10
:1064400095F85F602949204609F088FC284A0536FE
:10645000A2FB06323946120901A81AF04DFB01AB26
:1064600020461322162109F069FCAA69214901A8D6
:106470001AF042FB2046414609F070FC01AB204671
:106480000822002109F05AFC95F95E20394601A83E
:106490001AF032FB4146204609F060FC01AB1222A3
:1064A0002046002109F04AFC2046134909F056FC19
:1064B00005F13C031C222046002109F03FFC204648
:1064C0000E4909F04BFC2A8A394601A81AF014FB40
:1064D00001AB20468022002109F030FC0EB0BDE85F
:1064E000F08100BFA0640020403204004845040051
:1064F000CDCCCCCC44320400185C0400F045040040
:1065000000530400FFF78CBF30B4064C016106490C
:1065100042610025054A0570C0E90141C26030BCF6
:10652000704700BFC96202002164020005650200D5
:1065300001707047F8B5224D224C6A68B5F81CC04E
:106540006B696260D5E903610746A868A060A86925
:10655000E6602161AE7FA06105F12001482204F1CF
:106560002000A4F81CC06361A67719F0F1FA05F1C8
:106570006801482204F1680019F0EAFAD5E92D23F0
:10658000114E95F8B01084F8B0100120C4E92D2305
:1065900005F00AFF30460AF031F8304609F05AF8A3
:1065A000304600210AF034F8304608F0EDFFD7E914
:1065B00004017B6898473046BDE8F84008F0F0BF1A
:1065C000DC63002048960020A064002010B504463B
:1065D000144808F0D9FF2378012B07D0022B17D0DD
:1065E0006BB1BDE810400F4808F0DABFD4E90401F0
:1065F000A3689847BDE810400A4808F0D1BFD4E925
:10660000040163689847BDE81040064808F0C8BF19
:10661000D4E90401E3689847BDE81040014808F058
:10662000BFBF00BFA064002008B5064808F0ACFF5B
:10663000044808F0B5FFBDE808400248012109F010
:10664000E7BF00BFA064002030B5154A154C1648BE
:1066500083B011250F23CDE90035114603230AF03D
:1066600087F804F10805114B114A236028460023DE
:10667000C4F8B4206360C4F8B83009F0D1FD0D4807
:1066800020600D4B0D4A0E49284608F0F9FFFF2304
:1066900028461A46194603B0BDE8304008F008BF46
:1066A0000030004098640020DC6300205032040079
:1066B00011020300643204008DF30200C1F40200F1
:1066C0004863040041F2A873984200F00B8117D888
:1066D00040F6A763984200F0038140F2898041F2BE
:1066E000A733984200F0EF8076D941F2A753984241
:1066F00000F0DB8041F2A763984219D1E520704792
:1067000042F2A703984200F0E88030D942F2A75342
:10671000984200F0DA801BD942F2A773984200F049
:10672000C18043F6A723984209D14FF40E707047F9
:1067300041F2A74398420CBFE3200020704742F289
:10674000A76240F2272390420CBF184600207047F2
:1067500042F2A733984200F0B1801AD942F2A74220
:1067600040F2252390420CBF18460020704741F6A6
:10677000A843984200F0AC8021D941F6A763984223
:1067800000F08D8041F6A77398420FD14FF4C97085
:10679000704742F2A713984276D042F2A72240F205
:1067A000232390420CBF18460020704741F6A752A1
:1067B00040F2831390420CBF18460020704741F608
:1067C000A823984277D024D941F6A83398420CBF29
:1067D0004FF4AA700020704741F2A713984268D086
:1067E00023D941F2A72398420CBFE0200020704734
:1067F00040F6A70398426ED02DD940F6A7339842B1
:1068000055D01DD940F6A74398420CBFC8200020A0
:10681000704741F6A80398423FD041F6A81398422A
:106820000CBF4FF4A9700020704740F6A773984240
:1068300031D041F2A70398420CBFB6200020704728
:1068400040F6A713984224D040F6A72398420CBFE5
:10685000C6200020704740F2A763984231D0B0F5BF
:10686000D56F06D340F2A77398420CBF6F2000206B
:10687000704740F2A743984209D040F2A75398428C
:106880000CBF31200020704740F22120704730209B
:1068900070470C207047B5207047EA2070474FF4CE
:1068A000C570704740F22A207047E4207047C72027
:1068B0007047B720704740F2531070474FF409708B
:1068C000704732207047E220704740F22620704720
:1068D00040F255107047702070474FF4CA707047EF
:1068E000CD207047E920704738B504460D460C307E
:1068F00000F03AFDC5F3074205232583C4F81A20AA
:106900002360204638BD00BFF0B59DB2012D42D1B5
:1069100071B34C1EE4B2C4EB041402EB42056400F4
:1069200004EB4504A0F11E0600F1180C044406EB2C
:106930004506E646570001E0A6421CD0258B012DF6
:10694000A4F11E04F8D0C1EB01114900174401EB7A
:1069500047070EEB0701C3F307432EF80750C1F8B2
:106960000230BDB1BDE8F04011460C3000F002BD70
:1069700000F1180C57003A445200C1EB011102EB30
:1069800041010CEB0102C3F3074300202CF8010086
:10699000C2F80230F0BD00F1180E5700D3E700BF77
:1069A0000C3000F0F3BC00BF0C3000F00FBD00BF96
:1069B00070B5064601F10C000C46154600F03AFD94
:1069C000431E042B15D822689A421ED0C5EB05122F
:1069D00004EB420203EB430502EB4502236052F84D
:1069E000180F60609388238123893060B38030461C
:1069F00070BD0023A380E38023816068228930601A
:106A00000523B2802360304670BD20F002000128CB
:106A100004D000233380C6F80230F4E7D4F80630FF
:106A2000012BF6D0606823893060B380EBE700BFAC
:106A300010B50446006808B118F09AF8204610BD59
:106A400010B4034C034B21601A605DF8044B70478F
:106A5000E0650020E465002038B514680B6808493B
:106A60004FF4A27202FB04F24FF4F365044605FBF7
:106A7000032008442146FFF793FF024B1C6038BDFA
:106A8000346A00207065002030B415680B68074C2C
:106A90004FF4A27202FB05F24FF4F36505FB0323EA
:106AA0000146E01830BCFFF77FBF00BF346A00200A
:106AB000014B1880704700BF846500202DE9F84322
:106AC000204DD5E901239A42804604D022F8020BDA
:106AD0006A60BDE8F8832F686FF04043D41BB3EBC6
:106AE000640F4FEA640225D012B3A24217D9164EA2
:106AF000304618F02DF8002C20F80480814606441A
:106B000011DD2246394619F031F802344C4438463A
:106B100018F02EF8C5E90094AE60BDE8F88364B9BA
:106B200020802646A14602344C44002FF2D0EEE7E6
:106B30000226DDE7054802F0D9F8A34228BF234624
:106B40005E00D5E764650020FEFFFF7F7032040021
:106B5000014B1868704700BF706500202DE9F84FA1
:106B6000D0E900896FF04045A9EB0803B5EB630F4E
:106B70004BD093465A1006460F46A1EB0804002A54
:106B800041D09A421BD9254D284617F0E1FF824695
:106B9000BBF800302AF80430002C054418DCA9EBBF
:106BA00007090234B9F1000F544426DC4C44B8F113
:106BB000000F1AD1C6E900A4B560BDE8F88F3BBB51
:106BC0009A461D46002CBBF800302AF80430E6DD5A
:106BD000224641465046A9EB070918F0C7FF023488
:106BE000B9F1000F544408DC4C44404617F0C0FF94
:106BF000C6E900A4B560BDE8F88F39464A4620468C
:106C000018F0A6FFD2E70225BEE7054802F06EF8AD
:106C1000AB4228BF2B465D00B6E700BFFEFFFF7FFB
:106C2000703204000B1A30B4DD10002D3ADD1388E9
:106C300000EBC5050BE044889C420DD084889C4243
:106C40000DD0C4889C420DD00830A8420DD00488D5
:106C50009C42F0D130BC7047023030BC70470430E9
:106C600030BC7047063030BC70470B1A5B10022BEB
:106C700012D0032B0AD0012B02D0084630BC70473B
:106C8000138802889A42E5D00846F7E713880288FD
:106C90009A42DFD0023000E0138802889A42D9D0AD
:106CA0000230EEE75B10E2E72DE9F04F8F4D904F99
:106CB000D5E900139942D7E90043A3EB040218BFBA
:106CC0006960002A87B04FEA620619DDDFF81C828E
:106CD00008E0228823F8022B013E6B6004F10204D5
:106CE0000CD06968AA688A420B46F2D12246404617
:106CF000FFF734FF013E04F10204F2D1D7E900436B
:106D0000A3427C4B18BF7C601B885BB15A085B10A8
:106D100008D0002701375310FFB29AB2002BF9D1E7
:106D2000BBB200E01F46744A744E1268DFF8DCB153
:106D3000DFF8D491DFF8C8A113824FF00008A6F560
:106D4000F36403E004F5A274A64221D03A4621463A
:106D500004A8FFF72DFEBDF81020ADF80E20002A84
:106D6000F0D0D5E901108142DDF8123079D021F858
:106D7000022B6960012B5BD0022B7AD09DF80E307C
:106D800004F5A274DF2B98BF4FF00108A642DDD1B5
:106D900006F5F366B345D2D1D9E900431B1B002B9E
:106DA0004FEA630616DD514F07E0228823F8022BD5
:106DB000013E6B6004F102040CD0D5E9011291424E
:106DC0000B46F2D122463846FFF7C8FE013E04F1D9
:106DD0000204F2D1B8F1000F27D0494FD7E90043A0
:106DE0001A1B002A4FEA620619DDDFF8008107E06E
:106DF000228823F8022B013E6B6004F102040CD0C0
:106E0000D5E9011291420B46F2D122464046FFF7E6
:106E1000A5FE013E04F10204F2D1D7E900439C42F1
:106E2000384B18BF7C6000221A8007B0BDE8F08F95
:106E3000D9E900010DF10E024FF00003FFF7F2FE59
:106E4000D9F804209042014638D002318A4204D059
:106E5000521A18F08BFED9F804100239C9F8041040
:106E600070E7224801930DF10E02FFF777FE019BB8
:106E700080E7DAE900010DF10E024FF00003FFF7A1
:106E8000D1FEDAF8041081427FF45CAFDAF8083002
:106E9000994224D0BDF80E3021F8023BCAF8041004
:106EA0009DF80E30EF2B7FF64DAF1648F03B018872
:106EB000012202FA03F30B43038043E7D9F80830B9
:106EC000984206D0BDF80E3021F8023BC9F80410F4
:106ED00038E70D480DF10E02FFF740FE32E70DF1E5
:106EE0000E025046FFF73AFEDAE700BF5465002075
:106EF00064650020D6650020E4650020CC71002088
:106F0000B86500209C650020A0650020C497002083
:106F10002DE9F04FAB4BAC4CAC4EAD4A1B882588ED
:106F2000B2F800E0DFF8D0C2DFF8D092DFF8D0820C
:106F3000A84FDFF8D0A296E807002B4343EA0E03E0
:106F4000ACF800304B4603C34FF0000B83B01A80FF
:106F5000C6F800B0A6F804B086F806B0A6F808B0E7
:106F600088F800B087F800B0FFF79EFEDAE900214C
:106F70008A42A4F800B000F06B815B4694464FF063
:106F8000010E3CF8020BC0B2A0F1F00BEF280EFA94
:106F90000BFB03D94BEA03039BB223806145F0D17D
:106FA000DFF864B2DFF864C2BBF80000ED1A18BF66
:106FB00001258CF80050002840F02A818648019075
:106FC000044698F800C0387894F800A096460EE081
:106FD00006EB0C040CF1010C284362705FFA8CFC88
:106FE000BCF1060F08BF4FF0000C714562D03EF8AF
:106FF000024BE2B2A2F1040B5FFA8BFBBBF1A00FD4
:107000004FEA1425E4D9A53A422A00F25181DFE87B
:1070100012F08B0043007D007A007700740043007B
:107020004F014F014F014F014F014F014F014F01E0
:107030004F014F014F014F014F014F014F014F01D0
:107040004F014F014F014F014F014F014F014F01C0
:107050004F014F014F014F014F014F014F014F01B0
:107060004F014F014F014F014F014F014F014F01A0
:107070004F014F014F014F014F014F014F014F0190
:107080004F014F014F014F01B200AD00A800A30016
:107090009E00990094008600BAF1000FA0D1BCF1C7
:1070A000060F4E4A08BF4FF0000C714514804FF098
:1070B000010A9CD130703288B9F8001038700198FC
:1070C00088F800C0914280F800A0338157D0444B2B
:1070D00044491B681868986001230B70BAF1000FCF
:1070E00007D07388B18813430B439BB2002B00F089
:1070F000A080012003B0BDE8F08F3B4A14806FE709
:107100003A4A14806CE73A4A148069E7BAF1000FF2
:107110007FF466AF364A4FF0010A148060E72843D7
:1071200060F07F00C0B25BE7BAF1000F7FF458AFA8
:10713000304A4FF0010A148052E7284340F04000E3
:10714000C0B24DE7284340F02000C0B248E72843D2
:1071500040F01000C0B243E7284340F00800C0B23E
:107160003EE7284340F00400C0B239E7284340F02E
:107170000200C0B234E7284340F0010030E7B9F81C
:1071800008109942A3D17188B9F8023099429ED172
:10719000B188B9F80430994299D199F80630B1799B
:1071A000994294D10E4B0F491B681C689A68A21A29
:1071B00000207D2A08709DD901209C60087003B0D2
:1071C000BDE8F08F8465002062650020AC6500207A
:1071D0009C65002060650020D4650020D2650020F9
:1071E000E4650020C465002086650020DC65002081
:1071F000E8650020DA650020D6650020C86500201B
:10720000C565002054650020D865002088650020F1
:10721000DAF80830994244D021F8020BCAF8041079
:1072200000208A422388ABF800007FF4C7AE1846DE
:1072300019E0B379002B7FF45CAF1E4C1E481F4948
:107240001F4A019D23802B7003800B80138050E721
:10725000DFF880B01B4BBBF80000003D18BF0125D4
:107260001D700028D4D1184B01931B783A783270E6
:10727000308113B1019A002313703288B9F80030BD
:10728000934207D0114B124A1B680121186898607D
:1072900011702EE7B9F808308342F3D14FF0000A9D
:1072A00071E70C4A0C48FFF759FCDAE90021B7E70F
:1072B000284395E6DA650020D2650020E8650020C5
:1072C000DC65002088650020D4650020E46500208E
:1072D000C4650020D8650020546500201A481B4A68
:1072E0001B49D0B50024C0E90044846018F088FB35
:1072F0001848164A16498460C0E9004418F080FB1B
:107300001548124A1249846000260027C0E9006728
:1073100018F076FB11480D4A0D498460C0E900441D
:1073200018F06EFB0E48094A09498460C0E90067FD
:1073300018F066FB0B48054A8460C0E90044044924
:10734000BDE8D04018F05CBB546500200060002010
:10735000316A02006465002078650020A065002085
:1073600090650020B86500200022C0E9012202805B
:10737000827070474B1E012B05D9033901299CBF30
:107380000123837070470123437070474368012BCA
:1073900011D033F0020306D103782BB901231A462A
:1073A000C0E90121037070478278002A16BF0023CC
:1073B00001220522F4E78368CB1AC82BF3D943785E
:1073C000002BF0D00323C0E901317047D0E901233D
:1073D000012A10B4A1EB030319D0C82B03D8F2B9CA
:1073E0005DF8044B704703784BB183783BB10422BE
:1073F0000023C0E901215DF8044B03707047002AA7
:10740000EED00023C0E901315DF8044B70474478A9
:1074100054B9C82B03D90378002BF2D0E5E7142B1D
:10742000EFD85DF8044B70470223C0E901315DF8E5
:10743000044B704740687047014B1870704700BF9D
:1074400004600020054A1388C3F580618B42BABFEF
:1074500008339BB24FF480631380704708600020AC
:10746000044A1388082B86BF083B9BB2082313806D
:10747000704700BF08600020084B09481A8801883F
:1074800047F6FF7310B4A3EB8204A14202DA920024
:107490008B189BB25DF8044B038070470860002096
:1074A00006600020064B074A198813888800B3EB52
:1074B000810FC6BF1B1A9BB200231380704700BF09
:1074C0000860002006600020024B47F6FF721A8019
:1074D000704700BF06600020044A13780133DBB216
:1074E000032B88BF00231370704700BF0460002087
:1074F00040F63D23984238D941F27B4398422BD93C
:1075000041F6B86398423CD942F6F503984231D926
:1075100043F23333984239D9B0F5804F49D344F61A
:10752000CC43984251D945F69913984239D946F23D
:10753000666398424ED947F25C53984254D8314B17
:10754000C0EBC000C0EBC000A3FB002347F6A07057
:1075500000EBD30080B270472B4B00EB4000A3FB45
:10756000003000096B3880B27047284BA3FB003015
:107570004008704700EB4000C010A0F2366080B2B7
:1075800070478008A0F26F2080B270471A231D4A0E
:1075900003FB00F0A2FB00300009A0F6424080B2DD
:1075A000704700EB80008010A0F57350383880B22F
:1075B0007047144B00EBC0004000A3FB0030C00834
:1075C000A0F5B2500C3880B27047A0F51A500838B8
:1075D00080B270470C4BC000A3FB00308008A0F5C0
:1075E000B540163880B27047C0EB0012054BC0EBB7
:1075F0008200A3FB002345F2B00000EBD30080B271
:10760000704700BF1F85EB51CDCCCCCC398EE33811
:1076100070B52C4A1378032B21D8DFE803F013024E
:107620002318B0F57A7F2ED2274B284C1888284D86
:107630002080FFF75DFF04F09DFEB4F900202B8849
:107640009A420EDABDE87040002004F093BE1F4B52
:107650001888FFF74DFFBDE8704004F08BBE002393
:10766000137070BD1B4B1878C8B1174A184D174CD2
:1076700010882A88B4F90010861AB1421ADA501814
:1076800080B22080D5E7114C114DB4F900002B8851
:107690009842C6BFC01A80B200202080C9E70B4CB8
:1076A0000B4DB4F9002029888A4207DD501A80B2B8
:1076B0002080BEE7002220801A70BAE701222080D5
:1076C0001A70B6E704600020066000200A600020FF
:1076D000086000200560002008B5064809F0F8F9A8
:1076E0000448212109F0C0FCBDE808400148002100
:1076F00009F000BAEC650020014B1860704700BF2C
:1077000010600020B0F57A7F10B51ED2164CFF2312
:107710002370164809F0EEFC13F0CCF9144B1A68EC
:1077200043F6A6239A4207D1124A1378032B9ABF35
:107730000133DBB20223137021780C4809F0B2FC4C
:10774000BDE81040094809F0EFB9B0F5206F03D348
:10775000054C00232370DCE7074B034CA3FB0030F0
:107760006FEAD0002070D4E70C600020EC650020A8
:1077700010600020EA650020CDCCCCCC10B5054CC3
:10778000204609F085F92046034A0449BDE8104027
:1077900018F036B9EC65002000600020B50A03003F
:1077A0007ADF7047034AD37C23F0010343F00603DA
:1077B000D37470475C690020024AD37C23F006032F
:1077C000D37470475C690020014B0022DA74704763
:1077D0005C69002070B588B0002304460D46014660
:1077E00021480293CDE90033CDE90333CDE90533D8
:1077F000079307F04BF920220646694605F0F2FE92
:107800003046062105F00EFF6946184819F0B9F90F
:107810002E1D174B1749A3F8A440304606F052FC22
:1078200058B91549304606F04DFC78B91349304631
:1078300006F048FC98B908B070BD284605F00CFD6C
:107840000D49304606F03EFC0028EFD0284605F0F2
:1078500003FD0A49304606F035FC0028EBD02846E7
:1078600005F0FAFC08B070BDC4900020E06900206B
:107870005C690020A8660020586600200866002089
:107880002DE9F04188B000230146064625480293C1
:10789000CDE90033CDE90333CDE90533079307F094
:1078A000F5F820220746694605F09CFE1E4D06218C
:1078B000384605F0B7FE69461C4819F062F995F89C
:1078C0002F404FF0200808FB04544834214642461C
:1078D000684619F077F9D0B9154C384605F080FEA6
:1078E00095F82F30183335F81320824204D025F84C
:1078F0001300012384F8AF30E37CA4F85C6023F02C
:10790000070343F00803E37408B0BDE8F0812046A4
:107910004246074C694619F067F9012384F8AF30F5
:10792000DBE700BFC4900020B46800209869002005
:107930005C6900200F4BB3F85C20824213D0B3F88F
:107940008020824209D0B3F8A420824204D10122CF
:1079500083F8A61083F8AA207047012283F88210CA
:1079600083F8A9207047012283F85E1083F8A820CD
:10797000704700BF5C6900200B2B00D8704707CA16
:1079800008B5054B83E807001889FFF791F813F055
:1079900091F8024BD86008BD506700205C69002058
:1079A00010B50349044606F091FF204610BD00BF04
:1079B000C490002030B52A4C83B0062120466D4685
:1079C00004F0FAFE204604F0DFFE284640F2434170
:1079D00006F04EFB95E80600204604F08BFE284694
:1079E00047F6021106F044FB95E80600204604F035
:1079F00081FE284642F29C3106F03AFB95E80600EB
:107A0000204604F077FE28464DF2AB5106F030FBDD
:107A100095E80600204604F06DFE1249204604F069
:107A200075FE204604F082FE2046012104F0FEFE91
:107A3000F4222046202104F0EDFE20461E2104F011
:107A4000E7FE2046002104F051FF2046064904F0DD
:107A5000E5FE0649204604F0E3FE03B030BD00BF5A
:107A6000C4920020F4660020A5770200B9770200D6
:107A7000014804F0A1BF00BFC492002010B50A4C19
:107A80000A480023E37404F0CDFE18B1E37C43F010
:107A90000403E374064806F0CFFF18B1E37C43F01B
:107AA0002003E37410BD00BF5C690020C492002075
:107AB000C490002008B5034806F0BEFF003818BF88
:107AC000012008BDC4900020704700BF704700BF70
:107AD000F0B484B004AB03E9070000249DF805006E
:107AE0009DF806309DF809709DF80A6013499DF8CD
:107AF0000450224660F3070263F30F229DF807301B
:107B000008780F4963F317429DF808304C8163F3FE
:107B10001F62234667F3070366F30F2365F31743DA
:107B200060F31F63BDF80C5006480A600C224B60DE
:107B30000D8104B0F0BC05F0C7BB00BF3068002069
:107B4000046700200466002010B40849084A034670
:107B500014784B810023CC710B608B808B710548AE
:107B60005DF8044B0B810C2205F0AEBB04670020CE
:107B7000306800200466002010B40849084A034613
:107B800014784B810023CC710B608B808B7105487E
:107B90005DF8044B0B810C2205F096BB04670020B6
:107BA00030680020046600202DE9F04182B06C4668
:107BB0002148DFF89C80214E214D224F07F010F81C
:107BC000204640F2434106F053FA94E806001E486E
:107BD00006F034FA204647F6021106F049FA94E816
:107BE0000600404605F07AFA32462946404617F02C
:107BF00007FF204642F29C3106F03AFA94E806006C
:107C0000384605F06BFA3246294638460F4F17F0D2
:107C1000F7FE20464DF2AB5106F02AFA94E8060032
:107C2000384605F05BFA32462946384617F0E8FE3A
:107C300002B0BDE8F08100BF1067002000600020A6
:107C400079CB020054660020F46600200466002010
:107C5000A466002070B56D4B044693E8030086B01F
:107C600004AD002285E803000121694806F09CFC70
:107C70006748002106F0AEFE0021654806F05CFE74
:107C80006449634806F030FE6148042106F088FC30
:107C90005F48012106F080FC40F2C1315C4806F0EB
:107CA000C3FE5D495A4806F0F9FE2846FFF778FD05
:107CB0005A495B4806F04EF85A49594806F04CF8C4
:107CC000002C40F08B8058495848594D594E0C2291
:107CD00006F0C0FF0B225849544806F0B7FF53483E
:107CE00006F0BCFF554806F05DFF642153480024B0
:107CF00006F04CFF524804F0C5F8C5E9004451486D
:107D00002C81C6E90044B46006F07AF94E4812218D
:107D100005F030FA22464C48112105F043FA4A4852
:107D20000C2105F02BFA48480C2105F029FA4749A7
:107D3000454805F04DFA46494348012205F040FA0E
:107D4000414804F021FF29460C223F4805F048FA3B
:107D500040480C2105F00EFA112221463D4805F05D
:107D600021FA3C480C2105F009FA3A480C2105F0AB
:107D700007FA3949374805F02BFA384935480122C6
:107D800005F016FA334804F0FFFE29460C2231486C
:107D900005F026FA3248122105F0ECF92246304867
:107DA000112105F0FFF92E480C2105F0E7F92C48C8
:107DB0000C2105F0E5F92B49294805F009FA244979
:107DC0002748012205F0FCF9254804F0DDFE314684
:107DD0000C22234805F004FA06B070BD68460C4931
:107DE00006F074FD00980290C0F307200444BDF82B
:107DF00004209DF8063006488DF8094002A9ADF828
:107E00000C208DF80E3006F067FD5CE7F0320400C0
:107E1000C4900020383204003579020081780200D5
:107E200074930020C97702008C3204001067002090
:107E300050670020046700209C3204002C90002032
:107E400030680020F4660020A4660020A8320400F8
:107E5000D577020054660020B83204007979020018
:107E600004660020D032040010B50446006808B152
:107E700016F07EFE204610BD2DE9F0476648674E9D
:107E8000674C8CB016F076FF664816F073FF0FCE85
:107E90006D460FC50FCE0FC596E80F0007C56249A6
:107EA0002B70204616F098F86049614E204616F077
:107EB00093F8204616F070F85E49204616F08CF8CC
:107EC0000DF1FF3A00275BE05B49204616F036F8DB
:107ED0000A222946204616F04DF93146204616F072
:107EE0002DF8284615F0A4FF0A22C1B2204616F04C
:107EF00041F93146204616F021F80221284615F0B6
:107F000039FF284615F094FF5FFA80F80A224146AF
:107F1000204616F02FF93146204616F00FF80321BF
:107F2000284615F027FF284615F082FF5FFA80F9F2
:107F300049460A22204616F01DF93146204615F022
:107F4000FDFFB8F1000F40D0B9F1010F0CBF3B4964
:107F50003B49204615F0F2FF012D3CD9092D4BD0AD
:107F60000A2D44D0202D3BD13649204615F0E6FF9E
:107F7000013731462046FFB216F02EF82D2F40D0A3
:107F80001AF8015F0021284615F0F4FE0A2239464E
:107F9000204616F0EFF83146204615F0CFFF29466F
:107FA0000A22204616F0E6F83146204615F0C6FFB4
:107FB0001F2D89D92449204615F0C0FF0A22A5F1BA
:107FC0002001204616F010F987E72049204615F0D9
:107FD000B5FF012DC2D81E49204615F0AFFFC7E7F7
:107FE000122DC5D11B49204615F0A8FFC0E71A493C
:107FF000204615F0A3FFBBE71849204615F09EFF69
:10800000B6E7054816F082FE064816F07FFE0CB073
:10801000BDE8F04704F0EEB91C6A002020340400EB
:1080200034B30020486800207C3304008833040007
:1080300010340400AC330400D4330400E4330400EF
:10804000EC33040008340400D8330400DC330400AB
:10805000F03304001434040000340400F833040046
:108060002DE9F84FD0E900960546A6EB09036FF01D
:108070000040834251D08A469346002B48D0B3EB50
:10808000430F4FEA430831D98046AAEB0904404622
:1080900016F05EFD074680449BF800303B55002CEF
:1080A0000FDCA6EB0A060134002E3C4426DC3444E7
:1080B000B9F1000F11D1C5E90074C5F80880BDE819
:1080C000F88F224649463846A6EB0A0617F04EFDC1
:1080D0000134002E3C4411DC3444484616F048FD7F
:1080E000C5E90074C5F80880BDE8F88FB8F1000F45
:1080F000CADBA1EB0904CAD14746CDE72046514669
:10810000324617F025FD3444B9F1000FD3D0E4E72F
:10811000A1EB09044FF00108B9E7014800F0E6FDC2
:10812000703204000B1A30B49D10002D15DD137849
:1081300000EB85050BE044789C4229D084789C4272
:1081400029D0C4789C4229D00430A84204D00478B5
:108150009C42F0D130BC70470B1A022B12D0032B7B
:1081600004D0012B08D0084630BC70471378027841
:108170009A42EFD0013006E0137802789A42E9D0B3
:108180000846F1E7137802789A42E3D00130F4E729
:10819000013030BC7047023030BC7047033030BC17
:1081A000704700BF38B5384C054601E016F014F9A9
:1081B000204616F0F3F800282046F7DC3349324811
:1081C00015F00AFF002D49D031492F4815F004FF62
:1081D0002E492D4815F000FF2E492B4815F0FCFEC6
:1081E0002D49294815F0F8FE2849274815F0F4FED6
:1081F0002A49254815F0F0FE2949234815F0ECFEE0
:108200002849214815F0E8FE27491F4815F0E4FEEB
:1082100026491D4815F0E0FE25491B4815F0DCFEF7
:108220001A49194815F0D8FE2249174815F0D4FE0E
:108230002149154815F0D0FE1449134815F0CCFE1D
:108240001E49114815F0C8FE1D490F4815F0C4FE1F
:10825000BDE838400D490C4815F0BEBE19490A4822
:1082600015F0BAFE0949084815F0B6FE0949064856
:1082700015F0B2FE1449044815F0AEFE1349024849
:1082800015F0AAFEACE700BF34B30020F8320400BA
:108290005034040080340400603504009435040038
:1082A000B4350400D0350400EC3504001436040065
:1082B000303604004C36040078360400B43604002E
:1082C000DC360400AC340400D83404001C3504004F
:1082D0002DE9F04FDFF874A3DFF87493A3B0D34C0B
:1082E000204616F05BF8002840F3B58404F082F8CD
:1082F000204616F071F8C0B220385528F0D801A3F6
:1083000053F820F0CD880200E1820200E1820200F1
:10831000E1820200E1820200E1820200E1820200C9
:10832000E1820200E1820200E1820200E1820200B9
:10833000E1820200E1820200E1820200E1820200A9
:10834000E1820200E1820200E1820200E182020099
:10835000E1820200E1820200E1820200E182020089
:10836000E1820200E1820200E1820200E182020079
:10837000E1820200E1820200E1820200E182020069
:10838000E1820200E1820200E1820200E182020059
:10839000E1820200E1820200E1820200E182020049
:1083A000E1820200E1820200E1820200E182020039
:1083B000E1820200E1820200E1820200E182020029
:1083C000E1820200E1820200E1820200E182020019
:1083D000E1820200E1820200E1820200E182020009
:1083E000E1820200E1820200E1820200E1820200F9
:1083F000E1820200E1820200E1820200E1820200E9
:10840000E1820200E1820200E18202008188020032
:1084100077880200178902000F890200E1820200BA
:108420001D8902000B87020075870200E1820200AD
:10843000B5850200E1820200A1840200E18202000F
:10844000E182020063840200E1820200898C020062
:10845000E1820200E18202005D84020015F070FBFF
:108460003DE7734C237B2578032B00F21A84DFE869
:1084700013F058026B0204000400632D606840F2A0
:10848000ED8317F02FFA15AC02460B4600956949AB
:10849000204618F031FB2146644815F09DFD1EE78B
:1084A0006548664D664E16F065FC664816F062FC3F
:1084B0000020FFF777FE0FCD09AC05940FC40FCD58
:1084C0000FC495E80F0007C43268237012F0010250
:1084D00000F0A5835C48036813F0010300F091836A
:1084E000DFF84881404615F059FF0446002840F067
:1084F0005C8303F07FFF0DF12303059D069314E0D9
:10850000DAE900014FF000033246FFF70BFEDAF81C
:108510000410814200F0288214ABB34206D1013529
:108520000DF15103AB4200F00483069E95F800B0B4
:1085300016F8017F5846012115F01CFC384603212E
:1085400015F018FC5846002115F054FC384615F07B
:108550006FFC012103465846079315F04BFC384643
:1085600015F066FC002102465846934615F002FCC1
:108570003846002115F0FEFB079B13F0FF0FCBD10F
:108580001BF0FF0FC8D0D9E900012A46FFF7CAFD4A
:10859000D9F804108142B3D1D9F80830994200F0DB
:1085A000BC822B780B70D9F804300133C9F8043041
:1085B0000124A5E72048214D214E16F0DBFB214880
:1085C00016F0D8FB0120FFF7EDFD0FCD09AC0594A7
:1085D0000FC40FCD0FC495E80F0007C43268237095
:1085E00012F0010200F029831748036813F0010319
:1085F00000F0F982DFF83480404615F0CFFE002805
:1086000040F0598203F0F6FED9E90032934218BFD8
:10861000C9F80430DAE90032934218BFCAF80430CE
:108620000DF12303059C0693002628E034B30020B7
:1086300030680020883C04001C6A002020340400BC
:1086400060670020486800205C67002068670020A1
:1086500078670020DAE900014FF000032A46FFF7AF
:1086600061FDDAF80410814200F0AA8214ABAB423B
:1086700006D101340DF15103A34200F0E181069DC2
:1086800094F800B015F8017F5846012115F072FBEF
:108690003846032115F06EFB5846002115F0AAFB61
:1086A000384615F0C5FB012103465846079315F0DF
:1086B000A1FB384615F0BCFB002102465846934604
:1086C00015F058FB3846002115F054FB079B13F0BA
:1086D000FF0FCBD11BF0FF0FC8D0D9E90001224614
:1086E000FFF720FDD9F8043098420146B2D1D9F8FD
:1086F0000830984200F0468123780370D9F804309E
:108700000133C9F804300126A4E7A149A14815F0B6
:1087100063FCA1499F4815F05FFCA0499D4815F0F6
:108720005BFC9F499B4815F057FC9E49994815F002
:1087300053FC9D49974815F04FFC9C49954815F00E
:108740004BFC9B49934815F047FC9A49914815F01A
:1087500043FC99498F4815F03FFC98498D4815F026
:108760003BFC97498B4815F037FC8949894815F03F
:1087700033FCB4E593498748934D15F02DFC8449AB
:10878000844815F029FC9149824815F0D7FB904B9D
:1087900080481968102215F0E1FC8E4B7D4819685D
:1087A0004FF08054102215F0EDFCD4F800218A49D6
:1087B000D4F80431774815F05FFCD4F810218749CC
:1087C000D4F80C31734815F057FC8549714815F001
:1087D00003FC84496F4815F0FFFB83496D4815ACD5
:1087E00015F0FAFB6A496B4815F0F6FB00230022EE
:1087F0007E49204618F080F92146664815F0ECFBCA
:108800006FF059027A49204618F076F921466148FE
:1088100015F0E2FB77495F4815F0DEFB95F9822001
:10882000754905F16003204618F066F9214659485C
:1088300015F0D2FB95F95E20704905F13C03204606
:1088400018F05AF92146534815F0C6FB95F9A620B1
:108850006B4905F18403204618F04EF921464D4836
:1088600015F0BAFB4A494B4815F0B6FB16F0A2FBCF
:1088700016F0BEFA33E500F0F1FA02F0EBFE2EE559
:108880006049444815F0A8FB5F49424815F0A4FB35
:10889000404815F081FB5D493E4815F09DFB0120E5
:1088A00006F068FB022006F065FB594804F03EF92B
:1088B000384815F071FB5749364815F08DFB0120FB
:1088C00006F058FB022006F055FB08E552493148F6
:1088D00015F082FB51492F4815F07EFB50492D4879
:1088E00015F07AFB4F492B4815F076FB4E49294885
:1088F00015F072FB4D49274815F06EFB24492548B9
:1089000015F06AFB4A49234815F066FBE7E449483D
:1089100008F038FCE3E415F01BF9E0E4FFF7ACFAEB
:10892000DDE4606816F0DEFF02460B46A068CDE984
:10893000022316F0D7FF15ACCDE900013E4A2046D0
:10894000322118F0A5F8A6E5632D6068029540F283
:10895000908116F0C7FF15ACCDE90001374A2046DB
:10896000322118F095F896E5DAF80830994200F0CF
:10897000DA8033780B70DAF804300133CAF8043047
:108980000124C9E522464846FFF76AFB012661E655
:10899000E833040034B30020383A0400743A040089
:1089A000B43A0400F03A04002C3B0400603B04009D
:1089B000AC3B0400C83B0400E43B0400F83B04006B
:1089C000143C0400683704005C6900208037040010
:1089D000600000106400001090370400AC37040001
:1089E000D8370400F4370400143804003438040085
:1089F000483804005C3804007038040080380400F3
:108A000090380400343704008833040040370400F1
:108A10008493002054370400A0380400E438040094
:108A2000283904006C390400B0390400F43904001A
:108A30003C33040004970020383C0400583C0400F8
:108A4000002E3FF4D9AD9849404615F077FAD9E9A0
:108A50000045AC420CD0954E14F8011B0A2240464A
:108A600015F088FB3146404615F068FAA542F3D16F
:108A70008F49404615F0B0FA8E49404615F05EFA2F
:108A8000DAE90045AC420CD0884E14F8011B0A22EA
:108A9000404615F06FFB3146404615F04FFAA542AF
:108AA000F3D18349404615F097FA404615F076FC1D
:108AB00000283FF4A7AD804C01E015F08DFC204666
:108AC00015F06CFC00282046F7DCD9E9003293420F
:108AD00018BFC9F80430DAE9003278497648934281
:108AE00018BFCAF8043015F077FA7549724815F0C6
:108AF00073FA7249704815F06FFA72496E4815F0B2
:108B00006BFA71496C4815F067FA704816F0FEF878
:108B10006F4816F0FBF8FFF7E2BB2A464846FFF71E
:108B20009FFA0124ECE432465046FFF799FA0124FB
:108B3000F2E4002C3FF4D6AC5B49404615F0FEF958
:108B4000D9E90045AC420CD0584E14F8011B0A225A
:108B5000404615F00FFB3146404615F0EFF9A542AF
:108B6000F3D15349404615F037FA5249404615F0C3
:108B7000E5F9DAE90045AC420CD04C4E14F8011B83
:108B80000A22404615F0F6FA3146404615F0D6F96D
:108B9000A542F3D14649404615F01EFA404615F06D
:108BA000FDFB044600283FF4A4AC434C01E015F063
:108BB00013FC204615F0F2FB00282046F7DC84E782
:108BC000DAF80830994208D02B780B70DAF80430C4
:108BD0000133CAF80430012648E52A465046FFF71B
:108BE0003FFA012642E5CAF8083001230024002597
:108BF0000360384A38495046CAE9004516F000FF7C
:108C0000F8E4CAF808300123002400250360314A43
:108C100031495046CAE9004516F0F2FE60E40020F2
:108C20000021C9E90001C9F808200123294A2A497D
:108C30003360484616F0E4FE4CE400200021C9E908
:108C40000001C9F808200123224A2349336048461D
:108C500016F0D6FEC8E423B0BDE8F08F16F042FE51
:108C600015AC02460B4600951C49204617F044FF00
:108C700011E416F037FE15ACCDE90001184A204684
:108C8000322117F005FF06E4BFF34F8F1549164B4D
:108C9000CA6802F4E0621343CB60BFF34F8F00BF9A
:108CA000FDE715ACFFF7F7BB1C37040030370400B5
:108CB000243704002837040034B30020F8320400BD
:108CC00074330400E83304003C3304001C6A0020C1
:108CD0004868002000600020697E0200A03C04007B
:108CE000703C040000ED00E00400FA05BFF34F8F74
:108CF0000549064BCA6802F4E0621343CB60BFF338
:108D00004F8F00BFFDE700BF00ED00E00400FA0553
:108D100032DF704741DF704710B50446006808B184
:108D200015F026FF204610BD70B5474C474DFDF7A6
:108D30000FFFE3682668984238BF1846E060FDF7E9
:108D400007FF361AFEF79AFE2268636AA968D31AEB
:108D50008B4247D9B6F57A7F8CBF02230023D4E932
:108D60000A01101AFB28A2EB010195F8210028BF87
:108D70000323B1F5FA7F88BF0123C0B1216B511ADB
:108D8000322914D995F8203073B30623616B511A38
:108D9000322910D9A36BD31A642B29D830466263C9
:108DA000FEF736FC6869BDE8704011F08FBE95F89B
:108DB00020100029EAD1A16B511A642918D8013B6F
:108DC000052BEFD801A151F823F000BF0D8E020052
:108DD000118E0200338E0200F18D02009D8D020083
:108DE000038E02000023BAE7A36BD31A642B08D9C1
:108DF0001748A26303F04AFA6869BDE8704011F0B1
:108E000065BE30462263FEF77DFCCBE7E262C9E730
:108E1000104E304603F04EF8D6E90121337B30780E
:108E200084F88330236884F85F00C4E90621636214
:108E3000B8E795F829300848A26213B1FDF7C6FBE0
:108E4000B0E7FDF7F1FBADE75C690020B4680020F6
:108E5000246A00203068002084670020F0B41F4B93
:108E60001F4C204A9A6194E80700002503F1480648
:108E7000A3F8465003C6327003F1680603C640F2F9
:108E8000011159840521196047F230519960164F3C
:108E9000C3F8257010214FF0800CC3E904C10127ED
:108EA00008204FF0FF31C3F81E50DD85C3F836505F
:108EB000DD63C3F842505D87A3F8405083F8297002
:108EC0005F855860D86019639986327094E807000E
:108ED000883303C31A70F0BC704700BFB468002029
:108EE000B83C04000E0D0021010100012DE9F04FF6
:108EF0004D4BDFF8508185B01E46019311F0DAFD2D
:108F0000B246C8F8000016F8010B022114F032FF37
:108F1000464BB342F7D1464ADFF82C91002342F08A
:108F2000010202931F460092424E0121F05C14F0B0
:108F300021FF029B0021F05C3F4E14F05BFF009B81
:108F4000402098473D4A029B3D491278D1F81015C0
:108F50004FF0A04003EB4303D0F8100503971A44E9
:108F600006EBC20CC04346F83200C94306EBC3020D
:108F7000CCF80410D2E9030156F83360D2E9013C81
:108F80005269034346EA0C0643EA020B0E430023F0
:108F900008E0D8F80000FDF75FFD039B0133052BC7
:108FA000039321DC1AF8033059F82330C3F120026F
:108FB0000BFA02F226FA03F0203B10432BFA03F3DC
:108FC000184300F001043D4654EA050303AA02A930
:108FD000DFD1D8F8000003AA02A9FDF755FD039BD5
:108FE0000133052B0393DDDD029B124A0021D05C87
:108FF00014F0C0FE029B0133042B029394DD019C0C
:1090000014F8010B002114F0B5FE084BA342F7D170
:109010000A4A13780133DBB2022B84BF074A0023CC
:10902000137005B0BDE8F08F146000201A600020B6
:10903000004104001C600020B8670020B4670020D5
:10904000000300505C69002098670400224B1A88D6
:1090500042F6AA139A4200D0704730B41F4A1378E0
:10906000202B14D8202B20D8DFE803F02C15211F4B
:10907000151F1F1F151F1F1F1F1F1F1F151F1F1F1E
:109080001F1F1F1F1F1F1F1F1F1F1F1F1500402BEC
:1090900001D0802B09D1124B12481B78134435257F
:1090A000012400215D700470117030BC70470C4BBE
:1090B0000C481B7813443525012402215D7004708F
:1090C0001170F2E7064B07491B781A442920012347
:1090D00050700B70E9E700BF86650020AC6500208A
:1090E000C5650020C465002008B50120FFF710FE0B
:1090F000BDE80840FFF70EBEF8B5D0E90063876809
:10910000BB420446A1EB06061DD08B4294460D4699
:109110001A4611D033F8020CBCF8007022F8020B8A
:10912000981E8142626005D0421A981A16F01EFD00
:10913000206830442F80F8BDBCF8001022F8021BD4
:1091400018466260F8BDFDF709FD20683044F8BD9F
:109150002DE9F0470746294E17F8013BD6F800C025
:1091600082B0002B3BD0DFF898806446B14616E011
:1091700030F8022C21F8022B9C42A3EB0402716010
:10918000A0EB0200214605D016F0F0FCD6F800C096
:109190000CEB0A0325801C4617F8013BFBB118F8BD
:1091A000135008EB4303D6E90102002D5B7814BF8E
:1091B0004FF4007500251D4390420146A0F10203C3
:1091C000ADF80650A4EB0C0A0CD0A0422246CFD139
:1091D00022F8025B726017F8013B002BDFD102B06E
:1091E000BDE8F08721460DF106024846FDF7B6FCC2
:1091F000D6F800C00CEB0A04CEE700BFA867002039
:10920000B84304002DE9F04342F2A603984297B018
:1092100001F06D8100F2188141F2A613984201F02D
:10922000298140F2CF8041F6AB13984201F0FB80D8
:1092300040F2828041F6A653984201F0E98048D975
:1092400041F6AB63984201F0BE8030D941F6A67377
:10925000984201F0418141F6AB73984224D1CD4C44
:1092600040F262432168ADF8243009AA2046FFF796
:1092700043FF40F25A432168ADF8243009AA204642
:10928000FFF73AFF40F25C432168ADF8243009AAA9
:109290002046FFF731FF40F25B432168ADF82430F0
:1092A00009AA2046FFF728FF17B0BDE8F08341F672
:1092B000AB53984201F0EB8041F6A6639842F3D19C
:1092C000B54B93F8AB30002BEED0B448FFF740FF1E
:1092D000EAE741F6AB33984201F059844BD941F6A5
:1092E000A643984201F0488441F6AB439842DBD153
:1092F000A84C09AA216840F262452046ADF82450E6
:10930000FFF7FAFE40F25A432168ADF8243009AA6B
:109310002046FFF7F1FE2168ADF8245009AA204647
:10932000FFF7EAFE40F25C432168ADF8243009AA59
:109330002046FFF7E1FEB7E741F2A653984201F05D
:10934000EF8340F27A8341F6A603984201F0DD8371
:1093500024D941F6AB03984201F0018541F6A613EA
:109360009842A1D18C4B93F8AB30002B9CD08C4809
:10937000FFF7EEFE98E741F6AB23984201F05A84DE
:1093800041F6A633984240F09483834B93F8AB3078
:10939000002B89D08348FFF7DBFE85E741F2A66307
:1093A000984201F01B8441F2A67398427FF47CAF8F
:1093B000794B93F8AB30002B3FF476AF7A48FFF748
:1093C000C7FE71E740F6AB23984201F05A8440F2A1
:1093D000A58240F6A663984201F0AD8240F2618218
:1093E00040F6AB73984201F0468377D941F2A60369
:1093F000984201F0358341F2AB0398427FF454AFB9
:10940000644C40F262432168ADF8243009AA20463A
:10941000FFF772FE40F25A452168ADF8245009AAC0
:109420002046FFF769FE216809AA40F25B43204607
:10943000ADF82430FFF760FE2168ADF8245009AA8A
:109440002046FFF759FE2FE743F6AB33984201F071
:10945000378340F2E58044F2A623984201F0F5827A
:1094600040F2A48044F2AB53984201F06C8578D965
:1094700046F6A613984201F05D8542D946F6AB1335
:10948000984201F0878546F6AB2398427FF40CAFF3
:10949000404C09AA216840F262432046ADF82430CE
:1094A000FFF72AFE216809AA40F259432046ADF889
:1094B0002430FFF721FE216809AA40F25F432046CD
:1094C000ADF82430FFF718FE40F25E432168ADF896
:1094D000243009AA2046FFF70FFEE5E640F6AB630D
:1094E000984201F0AE8440F6A67398427FF4DCAE59
:1094F000294B93F8AB30002B40F0EA84FDF7D2FF04
:10950000D2E646F6A603984201F0008246F6AB0387
:1095100098427FF4C9AE1F4C09AA216840F2624309
:109520002046ADF82430FFF7E7FD216809AA40F294
:1095300059432046ADF82430FFF7DEFD216809AA23
:1095400040F25D432046ADF82430FFF7D5FD40F2F0
:109550005C432168ADF8243009AA2046FFF7CCFD12
:10956000A2E644F2A643984201F0C68140F2808010
:1095700044F2AB43984200F0018744F2A65398426C
:109580007FF492AE044A92F8AB3083F0010382F884
:10959000AB3089E6A86700205C690020F03D04003C
:1095A000BC3D0400D83D0400A03D040043F6A67372
:1095B000984200F08C8540F26F8344F2AB039842EE
:1095C00000F05E8540F20E8244F2A613984200F04D
:1095D0004B8544F2AB1398427FF466AECC4C09AA9B
:1095E000216840F26245204640F25A46ADF82450C8
:1095F000FFF782FD2168ADF8246009AA2046FFF735
:109600007BFD2168ADF8246009AA2046FFF774FDB0
:109610002168ADF8245009AA2046FFF76DFD43E606
:1096200042F2AB63984200F0F88440F2DD8042F6EB
:10963000AB63984200F0CA8440F2A08043F6A623B0
:10964000984201F0808340D943F6AB23984201F061
:10965000538343F6A63398427FF426AEAD4B93F87E
:10966000AB30002B3FF420AEAB48FFF771FD1BE69B
:1096700044F2A633984201F0998344F2AB33984206
:1096800051D1A34C09AA216840F262432046ADF8AB
:109690002430FFF731FD40F25A432168ADF8243001
:1096A00009AA2046FFF728FD40F25D452168ADF884
:1096B000245009AA2046FFF71FFD2168ADF8245069
:1096C00009AA2046FFF718FDEEE543F2AB63984286
:1096D00000F0738743F2AB7398427FF4E5AD8C4C96
:1096E00009AA216840F262452046ADF82450FFF7F0
:1096F00003FD40F25A432168ADF8243009AA204600
:10970000FFF7FAFC2168ADF8245009AA2046FFF7BC
:10971000F3FC40F25E432168ADF8243009AA2046EC
:10972000FFF7EAFCC0E544F2AB2398427FF4BCADFE
:10973000774C09AA216840F262432046ADF82430F4
:10974000FFF7DAFC216809AA40F25A432046ADF837
:109750002430FFF7D1FC216809AA40F25D4320467E
:10976000ADF82430FFF7C8FC40F25B432168ADF848
:10977000243009AA2046FFF7BFFC95E542F6AB234B
:10978000984200F0F38651D942F6AB43984200F07C
:10979000978742F6AB5398427FF486AD5C4C09AA9A
:1097A000216840F262432046ADF82430FFF7A4FC64
:1097B000216809AA40F259432046ADF82430FFF74A
:1097C0009BFC216809AA40F25D432046ADF8243095
:1097D000FFF792FC40F25C432168ADF8243009AAFF
:1097E0002046FFF789FC5FE542F2AB33984200F078
:1097F0003A8740F2248242F2A653984200F027872B
:1098000021D942F2AB53984200F0FC8642F2A663A3
:1098100098427FF449AD3F4B93F8AB30002B40F0BA
:10982000538342F2A660FDF767FF3DE542F2AB735A
:10983000984200F0748642F6A613984240F0628285
:1098400014F07EF930E542F2A643984200F05B86C0
:1098500042F2AB4398427FF427AD2D4C09AA216810
:1098600040F262432046ADF82430FFF745FC40F259
:109870005A432168ADF8243009AA2046FFF73CFC82
:1098800040F259452168ADF8245009AA2046FFF757
:1098900033FC2168ADF8245009AA2046FFF72CFCC0
:1098A00002E540F6AB43984200F0428356D940F6B9
:1098B000A653984201F0BA8240F6AB5398427FF427
:1098C000F3AC134C09AA216840F262432046ADF87C
:1098D0002430FFF711FC216809AA40F259432046C1
:1098E000ADF82430FFF708FC216809AA40F2614373
:1098F0002046ADF82430FFF7FFFB40F25E432168BD
:10990000ADF8243009AA2046FFF7F6FBCCE400BFEF
:10991000A86700205C690020A03E040040F2A67306
:10992000984201F07F8240F2048140F6A6139842EB
:1099300001F06D8228D940F6AB13984201F0D38232
:1099400040F6A62398427FF4AFACCB4B93F8AB30F4
:10995000002B40F0B582FDF7BFFDA5E440F6AB3328
:10996000984201F0998240F6A643984240F0168151
:10997000C14B93F8AB30002B40F09E820320FDF7E3
:109980005BFDFDF7A1FD8FE440F6A603984201F0D0
:109990007F8240F6AB03984240F0C581B74C40F25D
:1099A00062432168ADF8243009AA2046FFF7A4FBE2
:1099B00040F25A452168ADF8245009AA2046FFF725
:1099C0009BFB2168ADF8245009AA2046FFF794FBC1
:1099D0004FF48C632168ADF8243009AA2046FFF7C4
:1099E0008BFB61E443F6AB7398427FF45DACA34C10
:1099F00009AA216840F262432046ADF82430FFF7FF
:109A00007BFB216809AA40F25A432046ADF8243076
:109A1000FFF772FB216809AA40F259432046ADF8CE
:109A20002430FFF769FB4FF48C632168ADF82430D4
:109A300009AA2046FFF760FB36E441F2A6339842BC
:109A400000F0F98745D941F2AB33984200F0CC875A
:109A500041F2A64398427FF427AC874B884A93F89B
:109A6000AB30002182F82E10002B3FF41DAC834C4C
:109A70008448FFF76DFB28252168ADF8245009AA1A
:109A80002046FFF739FB8048FFF762FB2168ADF8FD
:109A9000245009AA2046FFF72FFB7C48FFF758FB0C
:109AA0002168ADF8245009AA2046FFF725FBFFF7EF
:109AB000FBBB41F6A62398427FF4F6AB6E4B93F8BE
:109AC000AB30002B3FF4F0AB7148FFF741FBFFF7E1
:109AD000EBBB41F2A623984200F0628741F2AB2330
:109AE00098426AD1654C09AA216840F26243204637
:109AF000ADF82430FFF700FB216809AA40F25A4371
:109B00002046ADF82430FFF7F7FA216809AA40F2A1
:109B10005B432046ADF82430FFF7EEFA40F25C4399
:109B20002168ADF8243009AA2046FFF7E5FAFFF7CF
:109B3000BBBB40F2AB53984200F00D8767D940F2AF
:109B4000A663984200F0018740F2AB6398427FF42D
:109B5000ABAB4A4C40F262432168ADF8243009AA0D
:109B60002046FFF7C9FA40F25A452168ADF8245063
:109B700009AA2046FFF7C0FA2168ADF8245009AAC7
:109B80002046FFF7B9FA40F25E432168ADF8243071
:109B900009AA2046FFF7B0FAFFF786BB40F6A633C6
:109BA00098427FF481AB344B93F8AB30002B3FF4F9
:109BB000D2AE3848FFF7CCFACDE641F2AB1398426B
:109BC0007FF472AB2D4C09AA216840F26243204613
:109BD000ADF82430FFF790FA40F25A432168ADF80F
:109BE000243009AA2046FFF787FA40F25B45216836
:109BF000ADF8245009AA2046FFF77EFA2168ADF897
:109C0000245009AA2046FFF777FAFFF74DBB40F230
:109C1000AB43984200F0248640F2A653984240F0AD
:109C2000DC801748144A90F82A3001214B4080F814
:109C30002A3082F8AF1082F8AC10FFF735BB42F241
:109C4000A623984200F06B8640F2978042F2AB2345
:109C5000984200F0DE8542F2A63398427FF424ABAE
:109C6000054B93F8AB30002B40F03B8142F2A6301D
:109C7000FDF742FDFFF718BB5C690020A8670020D4
:109C8000B4680020D43C0400F03C0400FC3C040018
:109C9000D03D04004C3D040043F6AB53984201F024
:109CA000918040F2A18043F6A663984200F02F8590
:109CB00043F6AB6398427FF4F7AAB74C09AA216830
:109CC00040F262432046ADF82430FFF715FA40F227
:109CD0005A432168ADF8243009AA2046FFF70CFA50
:109CE00040F259452168ADF8245009AA2046FFF7F3
:109CF00003FA2168ADF8245009AA2046FFF7FCF9C1
:109D0000FFF7D2BA42F2A67398427FF4CDAAA34BD2
:109D100093F8AB30002B40F0E08042F2A670FDF7E4
:109D2000EBFCFFF7C1BA40F2AB7398427FF4BCAAD8
:109D3000994C40F262432168ADF8243009AA2046CC
:109D4000FFF7DAF940F25A452168ADF8245009AA24
:109D50002046FFF7D1F92168ADF8245009AA204622
:109D6000FFF7CAF940F25F432168ADF8243009AA31
:109D70002046FFF7C1F9FFF797BA42F2A6139842BF
:109D800000F0FD8042F2AB13984240D1824C09AA08
:109D9000216840F262432046ADF82430FFF7ACF969
:109DA000216809AA40F25A432046ADF82430FFF753
:109DB000A3F9216809AA40F25C432046ADF824309B
:109DC000FFF79AF940F25D432168ADF8243009AA03
:109DD0002046FFF791F9FFF767BA40F2A643984291
:109DE0007FF462AAFEF782FF43F6AB43984200F08D
:109DF0005C8543F6A653984233D1694C237B267881
:109E0000032B01F28E81DFE803F080703C3C42F2CC
:109E1000AB0398427FF448AA5F4C09AA216840F23C
:109E200062432046ADF82430FFF766F940F25A430A
:109E30002168ADF8243009AA2046FFF75DF940F209
:109E40005C452168ADF8245009AA2046FFF754F973
:109E50002168ADF8245009AA2046FFF74DF9FFF715
:109E600023BA43F6A64398427FF41EAA4B4B93F8BD
:109E7000AB30002B3FF418AA4A48FFF769F9FFF707
:109E800013BA632E606841F2348115F02BFD09ADE1
:109E900002460B4600964449284616F02DFE2846F9
:109EA000FFF756F93C4828230168ADF81C3007AA93
:109EB000FFF722F9FFF7F8B93C48FFF749F95DE5EC
:109EC0003B48FFF745F946E53A48FFF741F9A8E472
:109ED0003948FFF73DF9FFF711BB3848FFF738F96C
:109EE0001BE73748FFF734F9C0E6632E6068029637
:109EF00041F20B8115F0F6FC09ADCDE90001314AC4
:109F00002846322116F0C4FDC9E7606815F0EAFC66
:109F100002460B46A068CDE9022315F0E3FC09AD2B
:109F2000CDE90001284A2846322116F0B1FDB6E7F6
:109F3000194C09AA216840F262432046ADF824304A
:109F4000FFF7DAF8216809AA40F259432046ADF834
:109F50002430FFF7D1F8216809AA40F26143204676
:109F6000ADF82430FFF7C8F840F25D432168ADF842
:109F7000243009AA2046FFF7BFF8FFF795B9074B31
:109F800093F8AB30002B41F07B8042F2A610FDF736
:109F9000B3FBFFF789B900BFA86700205C69002008
:109FA00030680020A83E0400883C0400543D0400B2
:109FB000443D0400683E04006C3D0400783E04000B
:109FC000383E0400583C0400383C0400D84C09AA30
:109FD000216840F262432046ADF82430FFF78CF848
:109FE000216809AA40F259432046ADF82430FFF712
:109FF00083F8216809AA40F25B432046ADF824307B
:10A00000FFF77AF84FF48C632168ADF8243009AA81
:10A010002046FFF771F8FFF747B9C54C09AA216838
:10A0200040F262432046ADF82430FFF765F821681E
:10A0300009AA40F25A432046ADF82430FFF75CF8F5
:10A04000216809AA40F259432046ADF82430FFF7B1
:10A0500053F840F25B432168ADF8243009AA20464A
:10A06000FFF74AF8FFF720B9B24BB34901220020AD
:10A0700081F82F0083F8AF2083F8AC20FFF714B9E4
:10A08000AB4C09AA216840F262432046ADF8243067
:10A09000FFF732F8216809AA40F25A432046ADF88A
:10A0A0002430FFF729F8216809AA40F259432046D5
:10A0B000ADF82430FFF720F840F261432168ADF895
:10A0C000243009AA2046FFF717F8FFF7EDB8984C9F
:10A0D0009A48DFF86092984E09AD4FF02808FFF7D4
:10A0E00037F82168ADF824802A462046FFF704F8A7
:10A0F00093490022284607AF16F0FEFC2846FFF7DA
:10A1000027F82168ADF81C803A462046FEF7F4FF98
:10A110008C496FF05902284616F0EEFC2846FFF7EE
:10A1200017F82168ADF81C803A462046FEF7E4FF98
:10A130008548FFF70DF82168ADF81C803A462046A7
:10A14000FEF7DAFF09F1600399F982207F4928467A
:10A1500016F0D2FC2846FEF7FBFF2168ADF81C8004
:10A160003A462046FEF7C8FF09F13C0399F95E2004
:10A170007749284616F0C0FC2846FEF7E9FF21681B
:10A18000ADF81C803A462046FEF7B6FF09F184037D
:10A1900099F9A6206F49284616F0AEFC2846FEF72E
:10A1A000D7FF06F148092168ADF81C803A462046E1
:10A1B000FEF7A2FF68494A46284616F09DFC28464D
:10A1C000FEF7C6FF96F8360096F8371096F8382056
:10A1D00096F839300093CDE90309CDE901212846ED
:10A1E00096F83A3096F83B205C4916F085FC2846F4
:10A1F000FEF7AEFF96F82F30002B00F03C87DFF81B
:10A20000748121684A4828233A46ADF81C30FEF78D
:10A2100073FF53494246284616F06EFC2846FEF767
:10A2200097FF96F83C0096F83D1096F83E2096F879
:10A230003F300093CDE90308CDE90121284696F887
:10A24000403096F84120474916F056FC2846FEF764
:10A250007FFF96F82F30012B00F04687DFF818813A
:10A260002168334828233A46ADF81C30FEF744FFF6
:10A270003D494246284616F03FFC2846FEF768FF57
:10A2800096F8420096F8431096F8442096F8453028
:10A290000093CDE90308CDE90121284696F8463020
:10A2A00096F84720314916F027FC2846FEF750FF64
:10A2B00096F82F30022B00F01287282621681C48C0
:10A2C000ADF81C603A46FEF717FF21681848ADF854
:10A2D0001C603A46FEF710FF3846FDF761FB9DF81B
:10A2E0001D009DF81E109DF81F209DF82030CDE91F
:10A2F0000210CDE900321E499DF821309DF8222040
:10A30000284616F0F9FB2846FEF722FF2168084888
:10A31000ADF81A600DF11A02FEF7EEFE216804484E
:10A32000ADF81A600DF11A02FEF7E6FEFEF7BCBFAB
:10A33000A86700205C690020B4680020743F040016
:10A340008C3F0400483804005C3804007038040076
:10A350008038040090380400A03F0400B03F04009F
:10A36000EC3F0400FC3F04002C4004003C4004008F
:10A370006C4004001C6900203C690020CC4C40F279
:10A3800062432168ADF8243009AA2046FEF7B4FEE6
:10A3900040F25A452168ADF8245009AA2046FEF73C
:10A3A000ABFE2168ADF8245009AA2046FEF7A4FEB2
:10A3B00040F259432168ADF8243009AA2046FEF73F
:10A3C0009BFEFEF771BFBA4C40F262432168ADF8C4
:10A3D000243009AA2046FEF78FFE40F25A45216834
:10A3E000ADF8245009AA2046FEF786FE216809AA86
:10A3F00040F25C432046ADF82430FEF77DFE216834
:10A40000ADF8245009AA2046FEF776FEFEF74CBFB1
:10A41000A84B93F8AB30002B3EF446AFA648FEF7AE
:10A4200097FEFEF741BFA24C09AA216840F26243A1
:10A430002046ADF82430FEF75FFE216809AA40F2FD
:10A440005A432046ADF82430FEF756FE216809AA8B
:10A4500040F25B432046ADF82430FEF74DFE40F25B
:10A460005F432168ADF8243009AA2046FEF744FE78
:10A47000FEF71ABF8F4B93F8AB30002B40F0F685F8
:10A480000120FCF7D9FFFDF71FF8FEF70DBF884C40
:10A4900009AA216840F262452046ADF82450FEF733
:10A4A0002BFE40F25A432168ADF8243009AA204619
:10A4B000FEF722FE2168ADF8245009AA2046FEF7D7
:10A4C0001BFE40F25D432168ADF8243009AA204606
:10A4D000FEF712FEFEF7E8BE764B93F8AB30002B8A
:10A4E0003EF4E2AE7548FEF733FEFEF7DDBE714B7B
:10A4F00093F8AB30002B40F0AF8542F2A600FDF799
:10A50000FBF8FEF7D1BE6B4B93F8AB30002B40F05D
:10A51000A88542F2A640FDF7EFF8FEF7C5BE644CF1
:10A5200009AA216840F262432046ADF82430FEF7C4
:10A53000E3FD216809AA40F25A432046ADF82430D1
:10A54000FEF7DAFD216809AA40F259432046ADF82A
:10A550002430FEF7D1FD40F25C432168ADF8243091
:10A5600009AA2046FEF7C8FDFEF79EBE504C09AA78
:10A57000216840F262432046ADF82430FEF7BCFD6E
:10A58000216809AA40F259432046ADF82430FEF76D
:10A59000B3FD216809AA40F25E432046ADF824309D
:10A5A000FEF7AAFD40F25D432168ADF8243009AA08
:10A5B0002046FEF7A1FDFEF777BE3D4C09AA2168B3
:10A5C00040F262452046ADF82450FEF795FD40F27A
:10A5D0005A432168ADF8243009AA2046FEF78CFDC5
:10A5E0002168ADF8245009AA2046FEF785FD40F207
:10A5F0005F432168ADF8243009AA2046FEF77CFDB0
:10A60000FEF752BE2A4C40F262432168ADF8243076
:10A6100009AA2046FEF770FD40F25A452168ADF8C0
:10A62000245009AA2046FEF767FD216809AA40F2D6
:10A6300059432046ADF82430FEF75EFD2168ADF8A1
:10A64000245009AA2046FEF757FDFEF72DBE194BF0
:10A6500093F8AB30002B40F0E08442F2A650FDF7B7
:10A660004BF8FEF721BE124C09AA216840F2624560
:10A670002046ADF82450FEF73FFD216809AA40F2BC
:10A680005A432046ADF82430FEF736FD216809AA6A
:10A6900040F259432046ADF82430FEF72DFD2168E5
:10A6A000ADF8245009AA2046FEF726FDFEF7FCBDB2
:10A6B000A86700205C690020E83D0400F83D040024
:10A6C000BC4C09AA216840F262432046ADF8243010
:10A6D000FEF712FD216809AA40F259432046ADF861
:10A6E0002430FEF709FD216809AA40F25E432046A6
:10A6F000ADF82430FEF700FD40F25C432168ADF870
:10A70000243009AA2046FEF7F7FCFEF7CDBDA94C80
:10A71000A948FEF71DFD28252168ADF8245009AA97
:10A720002046FEF7E9FCA548FEF712FD2168ADF8CA
:10A73000245009AA2046FEF7DFFCA148FEF708FDD9
:10A740002168ADF8245009AA2046FEF7D5FC9D48A3
:10A75000FEF7FEFC2168ADF8245009AA2046FEF75A
:10A76000CBFC13F055F99849024609A816F0C4F934
:10A7700007AF09A8FEF7ECFC2168ADF81C503A467B
:10A780002046FEF7B9FC13F083F99049024609A868
:10A7900016F0B2F909A8FEF7DBFC2168ADF81C50F1
:10A7A0003A462046FEF7A8FC00238949002209A862
:10A7B00016F0A2F909A8FEF7CBFC2168ADF81C50F1
:10A7C0003A462046FEF798FC824B93F82E30012B38
:10A7D00000F07684022B00F07184002B00F062847C
:10A7E0007D4B93F8A730012B00F04F84022B00F033
:10A7F0006984002B7EF458AD7848FEF7A9FC282325
:10A8000021686C48ADF81C303A46FEF775FCFEF73F
:10A810004BBD684C09AA216840F262432046ADF85E
:10A820002430FEF769FC216809AA40F25A43204609
:10A83000ADF82430FEF760FC216809AA40F25C43C1
:10A840002046ADF82430FEF757FC40F25E43216805
:10A85000ADF8243009AA2046FEF74EFCFEF724BDD1
:10A86000544C40F262432168ADF8243009AA2046D6
:10A87000FEF742FC40F25A452168ADF8245009AA7F
:10A880002046FEF739FC2168ADF8245009AA20467D
:10A89000FEF732FC40F25C432168ADF8243009AA8F
:10A8A0002046FEF729FCFEF7FFBC424C09AA2168AE
:10A8B00040F262432046ADF82430FEF71DFC2168CB
:10A8C00009AA40F25A432046ADF82430FEF714FCA2
:10A8D000216809AA40F25D432046ADF82430FEF716
:10A8E0000BFC40F259432168ADF8243009AA2046F8
:10A8F000FEF702FCFEF7D8BC374B93F8A730012BCC
:10A900003EF4D2AC01F082FDFEF7CEBC34493548AE
:10A9100001F0ACFB334801F0CDFAFEF7C5BC2E4B7D
:10A9200093F8AB30002B40F06C8342F2A620FCF78A
:10A93000E3FEFEF7B9BC284B93F8AB30002B40F098
:10A940005883FCF799FDFEF7AFBC234B012283F837
:10A95000AE20FEF7A9BC174C40F262432168ADF867
:10A96000243009AA2046FEF7C7FB40F25A45216869
:10A97000ADF8245009AA2046FEF7BEFB2168ADF8C9
:10A98000245009AA2046FEF7B7FB40F25D43216838
:10A99000ADF8243009AA2046FEF7AEFBFEF784BCD2
:10A9A0000D4B93F8AB30002B40F02F83FCF74AFDA2
:10A9B000FEF77ABCA8670020D8370400F4370400FB
:10A9C00014380400B03E0400CC3E0400E03E040015
:10A9D00034380400B46800205C690020643F04003F
:10A9E0005DBD020030680020B94C09AA216840F220
:10A9F00062432046ADF82430FEF77EFB216809AAA9
:10AA000040F25A432046ADF82430FEF775FB21682A
:10AA100009AA40F25B432046ADF82430FEF76CFBF8
:10AA200040F25D432168ADF8243009AA2046FEF7C4
:10AA300063FBFEF739BCA74B93F8AB30002B40F01B
:10AA4000DC82FCF70DFDFEF72FBCA24AA2490123D0
:10AA500081F82F3082F8AF3082F8AC30FEF724BC9A
:10AA60009C4B93F8AB30002B40F0D3820220FCF7D4
:10AA7000E3FCFEF719BC964C09AA216840F2624338
:10AA80002046ADF82430FEF737FB40F259432168E9
:10AA9000ADF8243009AA2046FEF72EFB40F26145AE
:10AAA0002168ADF8245009AA2046FEF725FB21684D
:10AAB000ADF8245009AA2046FEF71EFBFEF7F4BBB2
:10AAC000834C09AA216840F262452046ADF8245023
:10AAD000FEF712FB216809AA40F25A432046ADF85E
:10AAE0002430FEF709FB216809AA40F25D432046A5
:10AAF000ADF82430FEF700FB2168ADF8245009AA18
:10AB00002046FEF7F9FAFEF7CFBB724B93F8AB3055
:10AB1000002B3EF4C9AB7148FEF71AFBFEF7C4BB2D
:10AB20006C4B6D4A93F8AB30012182F82E10002B4C
:10AB30003EF4BAAB664C6A48FEF70AFB282521684A
:10AB4000ADF8245009AA2046FEF7D6FA6548FEF76C
:10AB5000FFFA2168ADF8245009AA2046FEF7CCFA86
:10AB60006148FEF7F5FA2168ADF8245009AA20469D
:10AB7000FEF7C2FAFEF798BB564B93F8AB30002BAA
:10AB80003EF492AB5948FEF7E3FAFEF78DBB504C0A
:10AB900009AA216840F262432046ADF82430FEF74E
:10ABA000ABFA216809AA40F25A432046ADF8243096
:10ABB000FEF7A2FA216809AA40F25B432046ADF8ED
:10ABC0002430FEF799FA40F261432168ADF8243051
:10ABD00009AA2046FEF790FAFEF766BB3D4B3E4AB7
:10ABE00093F8AB30022182F82E10002B3EF45CABC0
:10ABF000374C3B48FEF7ACFA28252168ADF82450C5
:10AC000009AA2046FEF778FA3948FEF7A1FA21682A
:10AC1000ADF8245009AA2046FEF76EFA3548FEF733
:10AC200097FA2168ADF8245009AA2046FEF764FA85
:10AC3000FEF73ABB264C09AA216840F2624320463F
:10AC4000ADF82430FEF758FA216809AA40F25A43B9
:10AC50002046ADF82430FEF74FFA216809AA40F2E9
:10AC60005B432046ADF82430FEF746FA4FF48C6380
:10AC70002168ADF8243009AA2046FEF73DFAFEF718
:10AC800013BB134C09AA216840F262432046ADF879
:10AC90002430FEF731FA216809AA40F259432046D0
:10ACA000ADF82430FEF728FA216809AA40F2614382
:10ACB0002046ADF82430FEF71FFA40F25B432168CE
:10ACC000ADF8243009AA2046FEF716FAFEF7ECBAD2
:10ACD000A86700205C690020B4680020A83D04003B
:10ACE000083D04001C3D0400FC3C0400E03D040061
:10ACF000F03C0400303D0400CA4C09AA216840F22F
:10AD000062432046ADF82430FEF7F6F9216809AA1F
:10AD100040F25A432046ADF82430FEF7EDF92168A1
:10AD200009AA40F25C432046ADF82430FEF7E4F96E
:10AD300040F261432168ADF8243009AA2046FEF7AD
:10AD4000DBF9FEF7B1BAB84B93F8AB30002B40F00B
:10AD50004C8143F6A620FCF7CFFCFEF7A5BAB14C18
:10AD600009AA216840F262432046ADF82430FEF77C
:10AD7000C3F9216809AA40F25A432046ADF82430AD
:10AD8000FEF7BAF9216809AA40F25B432046ADF804
:10AD90002430FEF7B1F940F25E432168ADF824306B
:10ADA00009AA2046FEF7A8F9FEF77EBA9E4B9F49F6
:10ADB0000122022081F82F0083F8AF2083F8AC2015
:10ADC000FEF772BA974C40F262432168ADF8243026
:10ADD00009AA2046FEF790F940F25A452168ADF8DD
:10ADE000245009AA2046FEF787F9216809AA40F2F3
:10ADF0005D432046ADF82430FEF77EF92168ADF8BA
:10AE0000245009AA2046FEF777F9FEF74DBA864B83
:10AE100093F8A720022A7EF447AA012283F8AD20E6
:10AE2000FEF742BA12F09CFEFEF73EBA7E4B93F854
:10AE3000AB30002B40F0D5800020FCF7FDFAFEF788
:10AE400033BA784C09AA216840F262432046ADF833
:10AE50002430FEF751F9216809AA40F25A432046EE
:10AE6000ADF82430FEF748F9216809AA40F25B43A7
:10AE70002046ADF82430FEF73FF940F259432168EF
:10AE8000ADF8243009AA2046FEF736F9FEF70CBAD1
:10AE900012F05EFEFEF708BA624C09AA216840F281
:10AEA00062432046ADF82430FEF726F9216809AA4E
:10AEB00040F259432046ADF82430FEF71DF92168D1
:10AEC00009AA40F261432046ADF82430FEF714F998
:10AED00040F25C432168ADF8243009AA2046FEF711
:10AEE0000BF9FEF7E1B94F4C09AA216840F2624321
:10AEF0002046ADF82430FEF7FFF8216809AA40F299
:10AF000059432046ADF82430FEF7F6F8216809AA27
:10AF100040F261432046ADF82430FEF7EDF840F2F0
:10AF20005A432168ADF8243009AA2046FEF7E4F818
:10AF3000FEF7BAB93E493F4801F098F83D4800F0A5
:10AF4000B9FFFEF7B1B9374C09AA216840F2624354
:10AF50002046ADF82430FEF7CFF8216809AA40F268
:10AF600059432046ADF82430FEF7C6F8216809AAF7
:10AF700040F25D432046ADF82430FEF7BDF840F2C4
:10AF800061432168ADF8243009AA2046FEF7B4F8E1
:10AF9000FEF78AB9234C09AA216840F26243204691
:10AFA000ADF82430FEF7A8F8216809AA40F2594309
:10AFB0002046ADF82430FEF79FF8216809AA40F238
:10AFC0005B432046ADF82430FEF796F84FF48C63CF
:10AFD0002168ADF8243009AA2046FEF78DF8FEF767
:10AFE00063B91548FEF7B4F826E71448FEF7B0F841
:10AFF000AFE61348FEF7ACF8A3E41248FEF7A8F852
:10B000001FE51148FEF7A4F88FE41048FEF7A0F8FA
:10B01000CCE40F48FEF79CF828E50E48FEF798F8B8
:10B02000FFF71BBBA86700205C690020B468002004
:10B0300071C00200306800205C3D04008C3E0400BA
:10B04000643D0400943D0400243E0400883D040057
:10B05000743D0400583E04003348FEF779F8FFF7CA
:10B060004CBA3248FEF774F8FFF753BA3048FEF78F
:10B070006FF8FFF705BA2F48FEF76AF8FFF7BFB879
:10B080002D48FEF765F8FEF780BF2C48FEF760F804
:10B09000282321682A48ADF81C303A46FEF72CF8E0
:10B0A000FEF702B92748FEF753F82168ADF81C50A7
:10B0B0003A462046FEF720F8FFF792BB2248F2E717
:10B0C0002248F0E72248FEF743F8282321681C486D
:10B0D000ADF81C303A46FEF70FF8FEF7E5B8154814
:10B0E000FEF736F8FFF7E9B81248FEF731F8FFF738
:10B0F000B5B814F0F7FB09AD02460B4600961549AA
:10B10000284615F0F9FCFEF7CABE14F0EBFB09ADBA
:10B11000CDE90001104A2846322115F0B9FCFEF7AE
:10B12000BEBE09ADFEF7BBBE003E0400483E0400B3
:10B130007C3D0400E03F0400103E0400443F040056
:10B14000A8670020F43E0400283F04000C3F0400E0
:10B15000543F0400A03C0400703C04002DE9F84F6B
:10B16000D0E90087334B344E0546A7EB080040106A
:10B1700003FB00F3B34251D08A469346002B48D0DC
:10B18000B3EB430F4FEA4302A1EB080422D9DFF8E7
:10B19000B090484613F0DCFC064681443319DBF8D6
:10B1A0000000DBF80410BBF808203051002C596077
:10B1B0001A8113DCA7EB0A070A34002F344422DC7F
:10B1C0003C44B8F1000F15D1C5E90064C5F80890FA
:10B1D000BDE8F88F2ABB91461646DFE72246414676
:10B1E0003046A7EB0A0714F0C1FC0A34002F3444A0
:10B1F00009DC3C44404613F0BBFCC5E90064C5F8DB
:10B200000890BDE8F88F51463A46204614F0A0FC5D
:10B21000D6E7A1EB08044FF00A09BAE70748FDF7A3
:10B2200065FDB24228BF32464FF00A0909FB02F918
:10B23000AFE700BFCDCCCCCCCCCCCC0C7032040072
:10B24000F8FFFF7F2DE9F041D0E901370668BB42E6
:10B2500084B00446A1EB060838D08B420D46164652
:10B2600026D01A46306852F80ACD71685768368978
:10B27000C3F800C05F6012891A8101AB03C3606824
:10B280001E80A0F10A0200F10A039542636004D017
:10B29000521B801A294614F069FC01AB03CB1B88B2
:10B2A0002B81286069602068404404B0BDE8F081CB
:10B2B0001268716859601A6032891A8143680A33CA
:10B2C00043602068404404B0BDE8F081FFF746FFCA
:10B2D0002068404404B0BDE8F08100BF2DE9F04192
:10B2E0008B4C86B0FBF714FE2388002B40F0918036
:10B2F000884C238833B140F2A542934200F0BF80CE
:10B3000000232380844DD5E9002393426AD0834AE9
:10B31000834C12788DF80D2000268DF80C608DF886
:10B320001260CDF80E60ADF8146033F8027C33F88B
:10B33000028D6B6021687FBA204603AAADF80C70BD
:10B34000FFF780FF6B6833F8023C43454FEA182053
:10B3500000F08B80D4E900739F4248D053F80A0D67
:10B36000704D59686A46164603C695F8A7101889A5
:10B3700030800129636000F09C80022957D00029A9
:10B380004CD09F4212D0684C2A68237823B96B684E
:10B39000D31AB3F57A7F06D9644B6A601878FCF744
:10B3A00095FB0023237006B0BDE8F0815B4B95F858
:10B3B000A7201B788DF80D30012A4FF000038DF87F
:10B3C00012308DF80C30CDF80E30ADF8143065D059
:10B3D000022A58D0002AD6D1394603AA5048FFF78E
:10B3E00031FFD0E74E4CD4E900739F42B6D1504BA9
:10B3F0001C784CB34B4D95F8A730012B7ED0022B17
:10B4000075D0002BBFD14B4A45483946FFF71AFF8C
:10B41000B9E7FDF71BFE0023238069E71946404882
:10B42000FFF710FFD4E900739F42ACD1BEE707CA13
:10B43000FCF74EFB404BD86840000FF047FBD4E9C7
:10B4400000739F429FD1B1E73C4E3088002849D11C
:10B450003B4C208888B3334D95F8A730012B3ED064
:10B46000022B39D0002323808DE78DF80C00216852
:10B470008DF80D6003AA2046FFF7E4FE6AE7314825
:10B48000FDF766FE3CE706AB13E90700FCF720FB7F
:10B49000294BD86840000FF019FB74E706AB13E99D
:10B4A000070001F085F8244BD86840000FF00EFB30
:10B4B00069E707CA01F07CF8BCE7234C194D2088E6
:10B4C00000283FF460AF95F8A730012B1DD0022B68
:10B4D000C8D1FCF739FBC5E7FCF74EFBC2E701F02A
:10B4E00079F8BFE7FDF78EFE0E4D34804BE7114B28
:10B4F000186859681A89FCF7EBFA44E70D4B18688D
:10B5000059681A8901F054F83DE701F06FF8A9E78E
:10B5100086650020DA650020A8670020F44004005A
:10B520009C6700205C69002088650020626500201F
:10B53000C4650020AC650020B4680020D2650020FE
:10B54000E8650020C43C0400DC65002008B5FDF778
:10B55000CDFCFFF7C3FEFBF7FBFA0D4BD9681A6869
:10B56000884238BF084693F8A710D86082428CBF43
:10B57000101A002031B1022908D1BDE8084001218C
:10B5800000F078BFBDE8084000F074BF08BD00BF00
:10B590005C690020F8B51F4F1F4D204C204E3846E7
:10B5A00013F098FB2A461F49384614F029FA204622
:10B5B00013F090FB2A461B4920461B4C14F020FA3E
:10B5C0001A491B4805F0AEFF32462146194800F0E3
:10B5D00095FD324621461848FAF796FF3246214635
:10B5E0001648FBF72DFA164800F0DEFB1548164901
:10B5F00000242A46C0E90044846014F001FA13488C
:10B6000013490460C0E901442A46BDE8F84014F03B
:10B61000F7B900BF1C6A00200060002048680020C5
:10B620005C69002085EC0300B468002004970020CA
:10B6300050680020246A002084670020186A0020D7
:10B6400030680020A8670020316A02009C67002053
:10B65000198D020008B50A490A4805F03BFE084961
:10B660000948012206F0B0F900B908BD07490648AB
:10B67000A82205F063FEBDE80840034806F00CB8B8
:10B68000984004000497002050680020B46800200F
:10B6900038B52D480BF032FC2C492D48002206F01D
:10B6A00093F92B4806F020FAF8B12A492848A82235
:10B6B00005F07CFF264805F0EFFF264C2378052B8C
:10B6C0002CD1254C00256582A4F8B05084F8B250E6
:10B6D00084F8AB500FF0EEF984F8A750C4E90000ED
:10B6E000C4E90255C4F8AC5038BDFDF7B7FB1749A3
:10B6F000154805F0EFFD15491548012206F064F9DB
:10B700000028DAD013491248124CA82205F016FE80
:10B710000F4805F0C1FF2378052BD2D0FDF79EFB23
:10B720000A49094805F0D6FD08490948012206F0F2
:10B730004BF90028C5D02146A822054805F0FEFD9A
:10B74000034805F0A9FFBCE70497002098400400D7
:10B7500050680020B46800205C69002070B5594C26
:10B7600082B000F0EDFE00F099FD00F033FE564887
:10B77000FAF7E0FEFFF78CFF94F82A30002B61D136
:10B7800094F82530002B40F0878094F82730002B68
:10B7900040F08B8001234D4A61684D48009300239F
:10B7A00013F0A0FA94F82F004A4DFCF753FA00F07A
:10B7B000D1F9AE1D15F8010B002112F0DBFAB542EC
:10B7C000F8D1454D6E1D15F8010B022112F0D2FA89
:10B7D000B542F8D1FCF7EEF83D4813F097FA3F4B2D
:10B7E000D3E900218A4218BF5A603D4BD3E90021BA
:10B7F0008A4218BF5A6094F82030002B5DD194F82B
:10B800002130002B56D1374800F084FC354800F039
:10B810009BFC354B00933549354800234FF480623B
:10B8200013F0E2F994F8293033B12748012102B02E
:10B83000BDE87040FAF77CBE234802B0BDE8704016
:10B84000FAF7F2BE2B484FF4E13112F099FE2A4983
:10B85000284812F0C1FB2949264812F0BDFB2849AF
:10B86000244812F0B9FB2749224812F0B5FB2649BB
:10B87000204812F0B1FB25491E4812F0ADFB2449C7
:10B880001C4812F0A9FB23491A4812F0A5FB94F8B2
:10B890002530002B3FF479AF94F8260000F084FDAA
:10B8A00094F82730002B3FF475AF94F8280000F08F
:10B8B0008FFD6FE7FBF710FFA5E7A07E00F02AFDE4
:10B8C0009DE700BFB4680020846700204DB50200EA
:10B8D0001C6A0020146000201C600020A867002063
:10B8E0009C670020246A0020A4400400298D0200E7
:10B8F000DCB4002034B30020A0380400E438040095
:10B90000283904006C390400B0390400F43904000B
:10B91000E83304003C330400F0B5784D8FB000F0FC
:10B9200069FD95F82A30E3B995F82E60012E1ED0F6
:10B93000022E00F0AE80002E00F09580704C94F83E
:10B94000AD308BBB94F8AF30002B7DD194F8AE3086
:10B9500013BB94F8AC302BBB28690FF0B7F80FB0CD
:10B96000F0BDFCF7B5FC95F82E60012EE0D100F09B
:10B9700011FE634C002800F0938094F8A730012B4F
:10B98000DDD0FCF797F8002840F0B280FCF770F8A3
:10B99000012384F8A730D2E75A4805F0F3FB0123CE
:10B9A00084F8AC30FDF7A2F90026FCF78DF831469B
:10B9B0001D2206A8059614F0F3F895F82F30524989
:10B9C000183305A835F8132015F096F805A94D4849
:10B9D00005F080FC95F82F204C4902EB420205EB64
:10B9E000420205A892F83B7092F83A30039792F819
:10B9F0003970029392F83830CDE9003792F8373039
:10BA000092F8362015F078F805A93E4805F062FC5A
:10BA100095F82F203E493620062313FB02031832E7
:10BA2000E8184FF6FF7725F81270EE50868095F8EB
:10BA30002F3007C905EB4313483303C301211A70A4
:10BA400084F8AF1084F8AC1032492E4805F042FC5F
:10BA500030493148012205F0B7FF00283FD10023CB
:10BA600084F8AF3072E700F095FD38B3244C94F8B9
:10BA7000A730012B3FF463AFFCF71CF800283AD144
:10BA8000FBF7F6FF012384F8A7300FF013F8E0600E
:10BA900055E7FCF70FF81A4C28B184F8A7604EE779
:10BAA00084F8A7004BE794F8A730002B3FF447AF8A
:10BAB000FBF780FF002384F8A73040E7FBF7FAFF8D
:10BAC0000F4C94F8A7300028EFD0022B3FF437AF8B
:10BAD000022384F8A7300EF0EDFFE0602FE707495E
