:020000022000DC
:1060000000000420898B0300C98B03008501040074
:10601000CD8B0300CF8B0300D18B03000000000069
:1060200000000000000000000000000079E503000F
:10603000D58B03000000000099E50300D98B030015
:10604000E9E60300DB8B0300DB8B0300091D030083
:10605000DB8B0300DB8B0300A9BD0300DB8B03009C
:10606000DB8B0300DB8B0300DB8B0300DB8B03008C
:10607000DB8B0300DB8B0300DB8B0300DB8B03007C
:10608000DB8B0300D1E20300E18A0300DB8B03001A
:10609000DB8B0300DB8B0300C9F60200DB8B030004
:1060A000DB8B0300DB8B0300DB8B0300DB8B03004C
:1060B000DB8B0300DB8B030000000000000000000E
:1060C000DB8B0300DB8B0300DB8B0300D5E70300D6
:1060D000DB8B0300DB8B0300DB8B030021FD030064
:1060E000DB8B0300DB8B0300DB8B03000000000075
:1060F00000000000DB8B0300000000004DE80300FF
:10610000000000000000000000000000000000008F
:10611000000000000000000000000000000000007F
:10612000000000000000000000000000000000006F
:10613000000000000000000000000000000000005F
:10614000000000000000000000000000000000004F
:10615000000000000000000000000000000000003F
:10616000000000000000000000000000000000002F
:10617000000000000000000000000000000000001F
:10618000000000000000000000000000000000000F
:1061900000000000000000000000000000000000FF
:1061A00000000000000000000000000000000000EF
:1061B00000000000000000000000000000000000DF
:1061C00000000000000000000000000000000000CF
:1061D00000000000000000000000000000000000BF
:1061E00000000000000000000000000000000000AF
:1061F000000000000000000000000000000000009F
:10620000F1EE103A43F08073E1EE103A704700BFB0
:1062100010B5054C237833B9044B13B10448AFF3E0
:1062200000800123237010BDC46300200000000023
:10623000F882040008B5034B1BB103490348AFF3D0
:10624000008008BD00000000C8630020F882040040
:10625000154B002B08BF134B9D46A3F5803A002138
:106260008B460F461348144A121A1AF075FE0F4B4C
:10627000002B00D098470E4B002B00D098470020F1
:10628000002104000D000D48002802D00C48AFF397
:1062900000801AF0F7FD2000290019F0D3FD1AF054
:1062A000CBFD00BF0000080000000420000000003B
:1062B00000000000C4630020DCC1002000000000DA
:1062C000000000000020704710B50A4801210AF0C4
:1062D000B5FE084801210AF07BFF064806490AF08E
:1062E000F9FEBDE810400348044B002204210AF0E7
:1062F000E1BE00BFA4640020705A0400E845040019
:1063000038B5044600F10805D4F8B430284698475B
:106310004FF6FD73984201D9012038BD0346B4F809
:10632000BA20B4F8B81028460AF08CFE94F89030E1
:10633000032BF1D8DFE803F0140E0802B4F8BA30EA
:10634000181AA4F8BA00E7E7B4F8B830181AA4F895
:10635000B800E1E7B4F8BA301844A4F8BA00DBE7B3
:10636000B4F8B8301844A4F8B800D5E72DE9F047E0
:10637000002A4ED0DFF8A49004460D468F18002660
:1063800000F108084FF6FD7A03E00120BD42064403
:1063900020D0236815F8011B1B684B4515D1D4F894
:1063A000B430404698475045EFD80346B4F8BA2079
:1063B000B4F8B81040460AF045FE94F89030032B2C
:1063C000E3D8DFE803F01F18110A20469847BD42C2
:1063D0000644DED13046BDE8F087B4F8BA30181A6A
:1063E000A4F8BA000120D1E7B4F8B830181AA4F81C
:1063F000B8000120CAE7B4F8BA301844A4F8BA00CB
:106400000120C3E7B4F8B8301844A4F8B80001205C
:10641000BCE716463046BDE8F08700BF01630200C6
:106420002DE9F0412F4C304FDFF8D4808EB00D466F
:10643000204601210AF002FE204600210AF0C8FE93
:1064400095F85F60294920460AF044FE284A05363F
:10645000A2FB06323946120901A81BF029FD01AB47
:106460002046132216210AF025FEAA69214901A817
:106470001BF01EFD204641460AF02CFE01AB2046D3
:10648000082200210AF016FE95F95E20394601A87F
:106490001BF00EFD414620460AF01CFE01AB122205
:1064A000204600210AF006FE204613490AF012FE9B
:1064B00005F13C031C22204600210AF0FBFD20468A
:1064C0000E490AF007FE2A8A394601A81BF0F0FCA3
:1064D00001AB2046802200210AF0ECFD0EB0BDE8A1
:1064E000F08100BFA4640020F0450400C8590400F6
:1064F000CDCCCCCCF445040098700400705A040054
:1065000080670400FFF78CBF30B4064C0161064978
:1065100042610025054A0570C0E90141C26030BCF6
:10652000704700BFC96202002164020005650200D5
:1065300001707047F8B5224D224C6A68B5F81CC04E
:106540006B696260D5E903610746A868A060A86925
:10655000E6602161AE7FA06105F12001482204F1CF
:106560002000A4F81CC06361A6771AF0CDFC05F1E9
:106570006801482204F168001AF0C6FCD5E92D2311
:10658000114E95F8B01084F8B0100120C4E92D2305
:1065900006F0DAF830460BF0EDF930460AF016FA5C
:1065A000304600210BF0F0F930460AF0A9F9D7E99E
:1065B00004017B6898473046BDE8F8400AF0ACB962
:1065C000E0630020AC960020A464002010B50446CF
:1065D00014480AF095F92378012B07D0022B17D025
:1065E0006BB1BDE810400F480AF096B9D4E9040138
:1065F000A3689847BDE810400A480AF08DB9D4E96D
:10660000040163689847BDE8104006480AF084B961
:10661000D4E90401E3689847BDE8104001480AF056
:106620007BB900BFA464002008B506480AF068F9E9
:1066300004480AF071F9BDE80840024801210BF056
:10664000A3B900BFA464002030B5154A154C164804
:1066500083B011250F23CDE90035114603230BF03C
:1066600043FA04F10805114B114A23602846002320
:10667000C4F8B4206360C4F8B8300AF08DFF0D4848
:1066800020600D4B0D4A0E4928460AF0B5F9FF234C
:1066900028461A46194603B0BDE830400AF0C4B88F
:1066A000003000409C640020E063002000460400AD
:1066B0008915030014460400050703003908030088
:1066C000C877040041F2A873984200F00B8117D8F4
:1066D00040F6A763984200F0038140F2898041F2BE
:1066E000A733984200F0EF8076D941F2A753984241
:1066F00000F0DB8041F2A763984219D1E520704792
:1067000042F2A703984200F0E88030D942F2A75342
:10671000984200F0DA801BD942F2A773984200F049
:10672000C18043F6A723984209D14FF40E707047F9
:1067300041F2A74398420CBFE3200020704742F289
:10674000A76240F2272390420CBF184600207047F2
:1067500042F2A733984200F0B1801AD942F2A74220
:1067600040F2252390420CBF18460020704741F6A6
:10677000A843984200F0AC8021D941F6A763984223
:1067800000F08D8041F6A77398420FD14FF4C97085
:10679000704742F2A713984276D042F2A72240F205
:1067A000232390420CBF18460020704741F6A752A1
:1067B00040F2831390420CBF18460020704741F608
:1067C000A823984277D024D941F6A83398420CBF29
:1067D0004FF4AA700020704741F2A713984268D086
:1067E00023D941F2A72398420CBFE0200020704734
:1067F00040F6A70398426ED02DD940F6A7339842B1
:1068000055D01DD940F6A74398420CBFC8200020A0
:10681000704741F6A80398423FD041F6A81398422A
:106820000CBF4FF4A9700020704740F6A773984240
:1068300031D041F2A70398420CBFB6200020704728
:1068400040F6A713984224D040F6A72398420CBFE5
:10685000C6200020704740F2A763984231D0B0F5BF
:10686000D56F06D340F2A77398420CBF6F2000206B
:10687000704740F2A743984209D040F2A75398428C
:106880000CBF31200020704740F22120704730209B
:1068900070470C207047B5207047EA2070474FF4CE
:1068A000C570704740F22A207047E4207047C72027
:1068B0007047B720704740F2531070474FF409708B
:1068C000704732207047E220704740F22620704720
:1068D00040F255107047702070474FF4CA707047EF
:1068E000CD207047E920704738B504460D460C307E
:1068F00000F0DAFDC5F3074205232583C4F81A200A
:106900002360204638BD00BFF0B59DB2012D42D1B5
:1069100071B34C1EE4B2C4EB041402EB42056400F4
:1069200004EB4504A0F11E0600F1180C044406EB2C
:106930004506E646570001E0A6421CD0258B012DF6
:10694000A4F11E04F8D0C1EB01114900174401EB7A
:1069500047070EEB0701C3F307432EF80750C1F8B2
:106960000230BDB1BDE8F04011460C3000F0A2BDD0
:1069700000F1180C57003A445200C1EB011102EB30
:1069800041010CEB0102C3F3074300202CF8010086
:10699000C2F80230F0BD00F1180E5700D3E700BF77
:1069A0000C3000F093BD00BF0C3000F0AFBD00BF55
:1069B00070B5064601F10C000C46154600F0DAFDF4
:1069C000431E042B15D822689A421ED0C5EB05122F
:1069D00004EB420203EB430502EB4502236052F84D
:1069E000180F60609388238123893060B38030461C
:1069F00070BD0023A380E38023816068228930601A
:106A00000523B2802360304670BD20F002000128CB
:106A100004D000233380C6F80230F4E7D4F80630FF
:106A2000012BF6D0606823893060B380EBE700BFAC
:106A300010B50446006808B119F066FA204610BD8A
:106A400010B4034C034B21601A605DF8044B70478F
:106A5000E8650020EC65002038B514680B6808492B
:106A60004FF4A27202FB04F24FF4F365044605FBF7
:106A7000032008442146FFF793FF024B1C6038BDFA
:106A8000946A00207465002030B415680B68074CC8
:106A90004FF4A27202FB05F24FF4F36505FB0323EA
:106AA0000146E01830BCFFF77FBF00BF946A0020AA
:106AB000014B1880704700BF8465002030B400246B
:106AC00060F3070461F30F2409499DF8085008702A
:106AD00062F31744074A9DF80C10157163F31F64A5
:106AE0009DF8103014605171937130BC704700BF35
:106AF000F2650020A06500202DE9F04F344A3548AA
:106B0000354C00783549364D53782070002483B0D9
:106B100008702C70002B4ED001204FF005094FF06B
:106B2000040E032702244B7028700346C846F4461F
:106B30003E4620464FF0060B92F802A0BAF1000F35
:106B40000DD0CB18019323463C46019F287087F84F
:106B500001A0304677466646CE46C446D84692F8EF
:106B60000390B9F1000F0AD001EB030A2870234605
:106B700030463C4666468AF80190C446774692F80D
:106B800004E0BEF1000F07D00B44287083F801E049
:106B90003046234666463C46577927B10B44287059
:106BA0005F7030462346927912B10B4428705A70B8
:106BB00003B0BDE8F08F4FF004094FF0030E022739
:106BC0000124C846F4463E4620464FF0050BB3E785
:106BD000A0650020F265002064650020B4650020F7
:106BE000CD6500202DE9F843204DD5E901239A42D7
:106BF000804604D022F8020B6A60BDE8F8832F6853
:106C00006FF04043D41BB3EB640F4FEA640225D00E
:106C100012B3A24217D9164E304619F055F9002C7E
:106C200020F804808146064411DD224639461AF0D8
:106C300079F902344C44384619F066F9C5E90094F4
:106C4000AE60BDE8F88364B920802646A1460234D0
:106C50004C44002FF2D0EEE70226DDE7054802F0B3
:106C6000E3F9A34228BF23465E00D5E7686500200C
:106C7000FEFFFF7F20460400014B1868704700BFED
:106C8000746500202DE9F84FD0E900896FF0404588
:106C9000A9EB0803B5EB630F4BD093465A10064699
:106CA0000F46A1EB0804002A41D09A421BD9254D7A
:106CB000284619F009F98246BBF800302AF804305A
:106CC000002C054418DCA9EB07090234B9F1000FC8
:106CD000544426DC4C44B8F1000F1AD1C6E900A494
:106CE000B560BDE8F88F3BBB9A461D46002CBBF84B
:106CF00000302AF80430E6DD224641465046A9EB32
:106D000007091AF00FF90234B9F1000F544408DCF6
:106D10004C44404619F0F8F8C6E900A4B560BDE857
:106D2000F88F39464A4620461AF0EEF8D2E7022597
:106D3000BEE7054802F078F9AB4228BF2B465D005C
:106D4000B6E700BFFEFFFF7F204604000B1A30B4F9
:106D5000DD10002D3ADD138800EBC5050BE04488FB
:106D60009C420DD084889C420DD0C4889C420DD09A
:106D70000830A8420DD004889C42F0D130BC704746
:106D8000023030BC7047043030BC7047063030BC35
:106D900070470B1A5B10022B12D0032B0AD0012B69
:106DA00002D0084630BC7047138802889A42E5D06A
:106DB0000846F7E7138802889A42DFD0023000E0E5
:106DC000138802889A42D9D00230EEE75B10E2E7DE
:106DD0002DE9F04F8F4D904FD5E900139942D7E937
:106DE0000043A3EB040218BF6960002A87B04FEA92
:106DF000620619DDDFF81C8208E0228823F8022BE6
:106E0000013E6B6004F102040CD06968AA688A42F2
:106E10000B46F2D122464046FFF734FF013E04F113
:106E20000204F2D1D7E90043A3427C4B18BF7C6037
:106E30001B885BB15A085B1008D00027013753103C
:106E4000FFB29AB2002BF9D1BBB200E01F46744AE0
:106E5000744E1268DFF8DCB1DFF8D491DFF8C8A116
:106E600013824FF00008A6F5F36403E004F5A27462
:106E7000A64221D03A46214604A8FFF799FDBDF865
:106E80001020ADF80E20002AF0D0D5E90110814283
:106E9000DDF8123079D021F8022B6960012B5BD02C
:106EA000022B7AD09DF80E3004F5A274DF2B98BF28
:106EB0004FF00108A642DDD106F5F366B345D2D105
:106EC000D9E900431B1B002B4FEA630616DD514F27
:106ED00007E0228823F8022B013E6B6004F10204D4
:106EE0000CD0D5E9011291420B46F2D12246384628
:106EF000FFF7C8FE013E04F10204F2D1B8F1000F21
:106F000027D0494FD7E900431A1B002A4FEA6206EF
:106F100019DDDFF8008107E0228823F8022B013E0B
:106F20006B6004F102040CD0D5E9011291420B46CA
:106F3000F2D122464046FFF7A5FE013E04F10204CD
:106F4000F2D1D7E900439C42384B18BF7C60002245
:106F50001A8007B0BDE8F08FD9E900010DF10E02EB
:106F60004FF00003FFF7F2FED9F8042090420146EB
:106F700038D002318A4204D0521A19F0D3FFD9F81E
:106F800004100239C9F8041070E7224801930DF18A
:106F90000E02FFF777FE019B80E7DAE900010DF1B1
:106FA0000E024FF00003FFF7D1FEDAF80410814221
:106FB0007FF45CAFDAF80830994224D0BDF80E3087
:106FC00021F8023BCAF804109DF80E30EF2B7FF633
:106FD0004DAF1648F03B0188012202FA03F30B4340
:106FE000038043E7D9F80830984206D0BDF80E3048
:106FF00021F8023BC9F8041038E70D480DF10E02E4
:10700000FFF740FE32E70DF10E025046FFF73AFE61
:10701000DAE700BF5865002068650020DE650020C3
:10702000EC6500202C720020C06500209C650020CB
:10703000A8650020249800202DE9F04F9C4EDFF831
:10704000AC92DFF8AC829B4F9B4C9C4D96E80700BE
:107050004B4603C34FF0000A83B01A80C6F800A065
:10706000A6F804A086F806A0A6F808A088F800A054
:1070700087F800A0FFF740FD914B924AB4F800B0AA
:107080001B881188904A4BEA03030B431380FFF7D8
:107090009FFED5E900218A42A4F800A000F0748187
:1070A000534694464FF0010E3CF8020BC0B2A0F1DB
:1070B000F00AEF280EFA0AFA03D94AEA03039BB250
:1070C00023806145F0D1DFF82CA2DFF82CC2BAF89A
:1070D0000000BBEB030B18BF4FF0010B8CF800B0A6
:1070E000002840F0338179480190044698F8005018
:1070F000387894F800B096460AE07419013540EAF1
:107100000C006270EDB2062D08BF0025714560D0FD
:107110003EF8024BE2B2A2F1040A5FFA8AFABAF12F
:10712000A00F4FEA142CE8D9A53A422A00F25F8159
:10713000DFE812F08B0043007C00790076007300DA
:1071400043005D015D015D015D015D015D015D016A
:107150005D015D015D015D015D015D015D015D013F
:107160005D015D015D015D015D015D015D015D012F
:107170005D015D015D015D015D015D015D015D011F
:107180005D015D015D015D015D015D015D015D010F
:107190005D015D015D015D015D015D015D015D01FF
:1071A0005D015D015D015D015D01B800B200AC00F3
:1071B000A600A0009A0094008500BBF1000FA2D1A8
:1071C000062D434A08BF0025714514804FF0010B7E
:1071D0009ED130703288B9F800103870019888F864
:1071E0000050914280F800B0338100F08780394B25
:1071F00039491B681868986001230B70BBF1000FB8
:1072000007D07388B18813430B439BB2002B00F067
:10721000AC80012003B0BDE8F08F304A148072E7E3
:107220002F4A14806FE72F4A14806CE7BBF1000FE0
:107230007FF469AF2B4A4FF0010B148063E740EAFB
:107240000C0060F07F00C0B25DE7BBF1000F7FF47F
:107250005AAF254A4FF0010B148054E740EA0C0066
:1072600040F04000C0B24EE740EA0C0040F0200081
:10727000C0B248E740EA0C0040F01000C0B242E75C
:1072800040EA0C0040F00800C0B23CE740EA0C00C5
:1072900040F00400C0B236E740EA0C0040F00200C3
:1072A000C0B230E740EA0C0040F001002BE700BF1D
:1072B000B4650020646500206665002058650020E4
:1072C000846500209C650020DE650020DC650020D0
:1072D000DA650020EC650020CC6500208665002082
:1072E000E4650020F0650020E2650020D065002004
:1072F000CD650020E065002088650020B9F8081001
:1073000099427FF474AF7188B9F8023099427FF4E2
:107310006EAFB188B9F8043099427FF468AF99F83C
:107320000630B17999427FF462AF324B32491B6823
:107330001C689A68A21A00207D2A08707FF66AAF3E
:1073400001209C60087003B0BDE8F08FAB689942E3
:1073500046D021F8020B696000208A422388AAF8EF
:1073600000007FF4C0AE18461CE0B379002B7FF418
:1073700050AF224C22482349234A019D23802B7081
:1073800003800B80138044E7DFF888A01F4BBAF816
:107390000000BBF1000B18BF4FF0010B83F800B0E9
:1073A0000028D3D11A4B01931B783A783270308180
:1073B00013B1019A002313703288B9F80030934258
:1073C00007D00C4B0C4A1B6801211868986011709B
:1073D0001FE7B9F808308342F3D14FF0000B92E772
:1073E0000C4A0D48FFF74EFCD5E90021B4E740EA0E
:1073F0000C0088E6EC650020CC650020E2650020EA
:10740000DA650020F0650020E46500208865002032
:10741000DC650020E0650020586500201A481B4A02
:107420001B49D0B50024C0E90044846019F0C4FCB5
:107430001848164A16498460C0E9004419F0BCFC9B
:107440001548124A1249846000260027C0E90067E7
:1074500019F0B2FC11480D4A0D498460C0E900449E
:1074600019F0AAFC0E48094A09498460C0E900677E
:1074700019F0A2FC0B48054A8460C0E900440449A5
:10748000BDE8D04019F098BC58650020006000208D
:10749000316A02006865002078650020A865002038
:1074A00090650020C06500200022C0E90122028012
:1074B000827070474B1E012B05D9033901299CBFEF
:1074C0000123837070470123437070474368012B89
:1074D00011D033F0020306D103782BB901231A46E9
:1074E000C0E90121037070478278002A16BF00238B
:1074F00001220522F4E78368CB1AC82BF3D943781D
:10750000002BF0D00323C0E901317047D0E90123FB
:10751000012A10B4A1EB030319D0C82B03D8F2B988
:107520005DF8044B704703784BB183783BB104227C
:107530000023C0E901215DF8044B03707047002A65
:10754000EED00023C0E901315DF8044B7047447868
:1075500054B9C82B03D90378002BF2D0E5E7142BDC
:10756000EFD85DF8044B70470223C0E901315DF8A4
:10757000044B704740687047014B1870704700BF5C
:1075800004600020054A1388C3F580618B42BABFAE
:1075900008339BB24FF4806313807047086000206B
:1075A000044A1388082B86BF083B9BB2082313802C
:1075B000704700BF08600020084B09481A880188FE
:1075C00047F6FF7310B4A3EB8204A14202DA9200E3
:1075D0008B189BB25DF8044B038070470860002055
:1075E00006600020064B074A198813888800B3EB11
:1075F000810FC6BF1B1A9BB200231380704700BFC8
:107600000860002006600020024B47F6FF721A80D7
:10761000704700BF06600020044A13780133DBB2D4
:10762000032B88BF00231370704700BF0460002045
:1076300040F63D23984238D941F27B4398422BD9FA
:1076400041F6B86398423CD942F6F503984231D9E5
:1076500043F23333984239D9B0F5804F49D344F6D9
:10766000CC43984251D945F69913984239D946F2FC
:10767000666398424ED947F25C53984254D8314BD6
:10768000C0EBC000C0EBC000A3FB002347F6A07016
:1076900000EBD30080B270472B4B00EB4000A3FB04
:1076A000003000096B3880B27047284BA3FB0030D4
:1076B0004008704700EB4000C010A0F2366080B276
:1076C00070478008A0F26F2080B270471A231D4ACD
:1076D00003FB00F0A2FB00300009A0F6424080B29C
:1076E000704700EB80008010A0F57350383880B2EE
:1076F0007047144B00EBC0004000A3FB0030C008F3
:10770000A0F5B2500C3880B27047A0F51A50083876
:1077100080B270470C4BC000A3FB00308008A0F57E
:10772000B540163880B27047C0EB0012054BC0EB75
:107730008200A3FB002345F2B00000EBD30080B22F
:10774000704700BF1F85EB51CDCCCCCC398EE338D0
:1077500070B52C4A1378032B21D8DFE803F013020D
:107760002318B0F57A7F2ED2274B284C1888284D45
:107770002080FFF75DFF04F0CDFFB4F900202B88D7
:107780009A420EDABDE87040002004F0C3BF1F4BE0
:107790001888FFF74DFFBDE8704004F0BBBF002321
:1077A000137070BD1B4B1878C8B1174A184D174C91
:1077B00010882A88B4F90010861AB1421ADA5018D3
:1077C00080B22080D5E7114C114DB4F900002B8810
:1077D0009842C6BFC01A80B200202080C9E70B4C77
:1077E0000B4DB4F9002029888A4207DD501A80B277
:1077F0002080BEE7002220801A70BAE70122208094
:107800001A70B6E704600020066000200A600020BD
:10781000086000200560002008B506480AF014FB47
:10782000044821210AF0DCFDBDE8084001480021A0
:107830000AF01CBBF4650020014B1860704700BFC4
:1078400010600020B0F57A7F10B51ED2164CFF23D1
:10785000237016480AF00AFE14F0E8FA144B1A686E
:1078600043F6A6239A4207D1124A1378032B9ABFF4
:107870000133DBB20223137021780C480AF0CEFDED
:10788000BDE8104009480AF00BBBB0F5206F03D3E8
:10789000054C00232370DCE7074B034CA3FB0030AF
:1078A0006FEAD0002070D4E70C600020F46500205F
:1078B00010600020F3650020CDCCCCCC10B5054C79
:1078C00020460AF0A1FA2046034A0449BDE81040C8
:1078D00019F072BAF4650020006000202D1E03002C
:1078E0007ADF7047034AD37C23F0010343F0060399
:1078F000D3747047BC690020024AD37C23F006038E
:10790000D3747047BC6900200249034A0023CB743A
:1079100013807047BC690020AC670020014B99744C
:10792000704700BFBC69002000B5002085B0FFF79C
:10793000BFF80023CDE9013300931A4619461846D3
:10794000FFF7BCF8034AD37C23F01003D37405B0CF
:107950005DF804FBBC6900202DE9F04188B00023EC
:107960000146054626480293CDE90033CDE90333AD
:10797000CDE90533079307F09BFE202207466946B1
:1079800006F014FA1F4E0621384606F039FA694609
:107990001D481AF0D2FA96F82F404FF0200808FB45
:1079A000046448342146424668461AF0E7FAE0B9D2
:1079B000164C384606F0F8F996F82F30183336F89A
:1079C0001320824204D026F81300012384F8AF303C
:1079D000E37C0F4AA4F85C5023F0070343F008034C
:1079E000E374158008B0BDE8F08120464246074C9C
:1079F00069461AF0D5FA012384F8AF30D9E700BF01
:107A00002891002014690020F8690020BC6900203A
:107A1000AC67002000B583B001460190074A0848D2
:107A200006F0DEFF019910B903B05DF804FB0548CC
:107A300003B05DF804EB05F033BA00BFB466002074
:107A400084930020E89300200F4BB3F85C2082421F
:107A500013D0B3F88020824209D0B3F8A420824228
:107A600004D1012283F8A61083F8AA2070470122CE
:107A700083F8821083F8A9207047012283F85E10F2
:107A800083F8A820704700BFBC69002002B9704786
:107A9000F0B5041D85B00E4620461749154607F07F
:107AA000F9F800BB1549204607F0F4F8C8B10B2DD2
:107AB00017D93279F3783578B47971790291CDE9B3
:107AC00000323789B3787278768929462046FEF7E6
:107AD000F5FF3846FEF7ECFF094B1E8055EA04031C
:107AE00005D105B0F0BD3078FEF7E2FFDAE714F01B
:107AF0009DF9044BD860F4E78066002010660020F2
:107B0000E0650020BC69002010B50349044607F079
:107B1000D9FC204610BD00BF2891002010B5174C9D
:107B20000621204605F00CF8204604F0F1FF20461F
:107B300040F2C13105F018F81149204604F0AAFFBF
:107B4000204604F0B7FF2046012105F047F8F42253
:107B50002046202105F036F820461E2105F030F899
:107B60002046002105F09AF82046064905F02EF837
:107B700020460549BDE8104005F02AB828930020AA
:107B800008670020E5780200F9780200014805F056
:107B9000EBB800BF2893002010B50A4C0A48002318
:107BA000E37405F017F818B1E37C43F00403E374C1
:107BB000064807F03DFD18B1E37C43F02003E37471
:107BC00010BD00BFBC690020289300202891002030
:107BD00008B5034807F02CFD003818BF012008BD88
:107BE00028910020024B0348198807F03FBD00BFD1
:107BF000AC6700202891002010B50446064805F027
:107C0000D9FD00B910BD054903480C810C22BDE81F
:107C1000104005F065BE00BF44660020B06700203C
:107C200030B587B001AB83E807000A49DDF80530BD
:107C30009DF809509DF80A4004939DF80420098896
:107C400005488DF8145004AB8DF8154007F0C0FEC0
:107C500007B030BDAC6700200867002040F6A9439C
:107C6000984200F08B8014D840F6A903984200F0A7
:107C7000A4802AD940F6A923984200F0A78040F6B4
:107C8000A933984216D1564B56481988042207F05A
:107C9000CBBE41F2A913984276D031D941F2A93333
:107CA000984277D041F2A943984221D14E4B1022FD
:107CB0001A70704740F6A913984240F08E80484BE6
:107CC00048481988012207F0AFBE40F2A9639842E4
:107CD0006AD025D940F2A973984242D1424A404B1A
:107CE000127819883F48524252B2002307F0D0BEA2
:107CF00041F2A923984271D13B4B01221A7070477F
:107D000040F6A973984249D01CD941F2A903984280
:107D100028D1334B334819884FF0FF3207F0F4BEB7
:107D200040F2A94398421ED040F2A953984253D141
:107D30002D4B2B4A1B7811882A485B425BB20022EC
:107D400007F0A6BE40F6A953984211D040F6A963A9
:107D5000984244D1224B234819884FF0FF3207F054
:107D6000B5BE704770471E4B1E48198807F078BE95
:107D70001B4B1C481988102207F056BE184B194897
:107D80001988082207F050BE154B164819880122A1
:107D900007F0BABE144B08221A707047104B1148F6
:107DA0001988012207F092BE0D4A0F4B118893F9F2
:107DB00000300C48002207F06BBE094B0A4A1988B4
:107DC00092F900200748002307F062BE044B0548E3
:107DD0001988022207F028BE704770477047704725
:107DE000AC670020086700201460002010B50A4B23
:107DF0000A4C198882B00191FEF764FC0199024691
:107E0000204607F003FE082014F01CF8204602B0BC
:107E1000BDE8104007F094BEAC6700200867002062
:107E20002DE9F043DFF8B890264D2748DFF8B480FD
:107E3000264E274F83B007F0E5FC48466C4607F016
:107E40009DFD2A462349484618F0B6FF204640F2D9
:107E5000434106F0EFFE94E806001F4805F000FFDE
:107E6000204647F6021106F0E5FE94E8060040467B
:107E700005F032FC2A463146404618F09DFF204668
:107E800042F29C3106F0D6FE94E80600384605F032
:107E900023FC2A4631463846104F18F08DFF204605
:107EA0004DF2AB5106F0C6FE94E80600384605F0E8
:107EB00013FC2A463146384618F07EFF03B0BDE871
:107EC000F08300BF00600020C86600208DD602004D
:107ED000446600208D810200B46600200C660020FC
:107EE000086700207C66002070B5614B044693E86B
:107EF00003008AB0012204AD85E8030011465D4805
:107F000007F04EF95B48002107F060FB002159485B
:107F100007F00EFB5849574807F0E2FA554804218C
:107F200007F03AF95348012107F032F940F2C13124
:107F3000504807F075FB51494E4807F0C1FB2846F1
:107F4000FFF7CEFC4E494F4806F07AFC4E494D48AB
:107F500006F078FC002C72D108AE4C494C480C223B
:107F600007F08AFC0B224B49494807F081FC48483E
:107F700007F086FC484807F027FC6421464807F0D4
:107F800017FC464804F04EF9454B464800241C6057
:107F90001C815C6007F0E4FD4349424807F000FDA6
:107FA000424805F035FE2146414805F0B5FB012267
:107FB00040493F4805F00AFD21463F4805F0ACFB2B
:107FC00001223C493C4805F001FD21463B4805F0B3
:107FD000A3FB3B493B4806F083FC3A48012106F0ED
:107FE00081FC06AD37486FF0590106F0FDFC2846CC
:107FF000354906F025FE304640F2434106F01AFEB0
:10800000099B009395E80600089B2E4806F0F0FCBB
:1080100050222C48A02106F059FC2146294806F0A0
:108020004DFC2146274806F063FC2849284804F007
:108030006DFF2849264804F06BFF0AB070BD02A806
:108040000C4907F03FFA0298089008AEC0F30720E9
:108050000444BDF80C209DF80E3006488DF82140F0
:108060003146ADF824208DF8263007F031FA74E758
:108070005846040028910020E8450400497A02008F
:1080800059790200D8930020097902003C46040087
:10809000C86600204C4604008C90002090680020A8
:1080A000B0670020086700201D790200B466002038
:1080B0007C6600208D7A02000C6600204466002059
:1080C000157A02008493002028590400D980020008
:1080D000E89300202979020030B589B000230446D6
:1080E000014624480293CDE90033CDE90333CDE9BD
:1080F0000533079307F0DCFA20220546694605F0B0
:1081000055FE2846062105F07BFE1B486946A0F176
:10811000600519F012FF1948A5F88040214605F0C6
:1081200089FD80B1164805F01FFBD0B9154805F050
:108130001BFB90B9144805F017FBEB7C43F01003D0
:10814000EB7409B030BD21460A4807F08FFAEB7C8A
:1081500043F01003EB7409B030BD0A4805F03EFC53
:10816000E8E7074805F03AFC064805F0FDFA002864
:10817000E0D0F2E7289100201C6A0020B4660020BD
:108180007C6600200C6600204466002010B5044B7D
:10819000044640F84C3B04F0E3FE204610BD00BF0F
:1081A0001C58040010B50446006808B117F0ACFE76
:1081B000204610BD2DE9F0476648674E674C8CB0ED
:1081C00017F0B4FF664817F0B1FF0FCE6D460FC52C
:1081D0000FCE0FC596E80F0007C562492B702046E9
:1081E00017F0B6F86049614E204617F0B1F8204606
:1081F00017F08EF85E49204617F0AAF80DF1FF3A05
:1082000000275BE05B49204617F054F80A22294614
:10821000204617F06BF93146204617F04BF82846F8
:1082200016F0C2FF0A22C1B2204617F05FF93146AC
:10823000204617F03FF80221284616F057FF28463F
:1082400016F0B2FF5FFA80F80A224146204617F086
:108250004DF93146204617F02DF80321284616F037
:1082600045FF284616F0A0FF5FFA80F949460A222A
:10827000204617F03BF93146204617F01BF8B8F1BD
:10828000000F40D0B9F1010F0CBF3B493B492046DC
:1082900017F010F8012D3CD9092D4BD00A2D44D0F0
:1082A000202D3BD13649204617F004F801373146DE
:1082B0002046FFB217F04CF82D2F40D01AF8015F7E
:1082C0000021284616F012FF0A223946204617F0F0
:1082D0000DF93146204616F0EDFF29460A222046C8
:1082E00017F004F93146204616F0E4FF1F2D89D916
:1082F0002449204616F0DEFF0A22A5F1200120467F
:1083000017F02EF987E72049204616F0D3FF012DFC
:10831000C2D81E49204616F0CDFFC7E7122DC5D1A1
:108320001B49204616F0C6FFC0E71A49204616F042
:10833000C1FFBBE71849204616F0BCFFB6E7054869
:1083400017F0C0FE064817F0BDFE0CB0BDE8F047C0
:1083500004F020BA7C6A00208847040098B300200B
:10836000A8680020E4460400F046040078470400B2
:10837000144704003C4704004C47040054470400E1
:108380007047040040470400444704005847040075
:108390007C47040068470400604704002DE9F84F5B
:1083A000D0E900960546A6EB09036FF00040834232
:1083B00051D08A469346002B48D0B3EB430F4FEA87
:1083C000430831D98046AAEB0904404617F07CFDEA
:1083D000074680449BF800303B55002C0FDCA6EB91
:1083E0000A060134002E3C4426DC3444B9F1000F67
:1083F00011D1C5E90074C5F80880BDE8F88F2246A0
:1084000049463846A6EB0A0618F08CFD0134002ECA
:108410003C4411DC3444484617F076FDC5E900744D
:10842000C5F80880BDE8F88FB8F1000FCADBA1EBF2
:108430000904CAD14746CDE720465146324618F0D6
:1084400063FD3444B9F1000FD3D0E4E7A1EB090494
:108450004FF00108B9E7014800F0E6FD20460400AE
:108460000B1A30B49D10002D15DD137800EB850537
:108470000BE044789C4229D084789C4229D0C4786F
:108480009C4229D00430A84204D004789C42F0D108
:1084900030BC70470B1A022B12D0032B04D0012BD7
:1084A00008D0084630BC7047137802789A42EFD063
:1084B000013006E0137802789A42E9D00846F1E7E5
:1084C000137802789A42E3D00130F4E7013030BCEF
:1084D0007047023030BC7047033030BC704700BF7B
:1084E00038B5384C054601E017F032F9204617F050
:1084F00011F900282046F7DC3349324816F028FFEE
:10850000002D49D031492F4816F022FF2E492D4821
:1085100016F01EFF2E492B4816F01AFF2D49294848
:1085200016F016FF2849274816F012FF2A49254859
:1085300016F00EFF2949234816F00AFF2849214862
:1085400016F006FF27491F4816F002FF26491D486E
:1085500016F0FEFE25491B4816F0FAFE1A49194886
:1085600016F0F6FE2249174816F0F2FE214915488A
:1085700016F0EEFE1449134816F0EAFE1E491148A3
:1085800016F0E6FE1D490F4816F0E2FEBDE8384041
:108590000D490C4816F0DCBE19490A4816F0D8FE01
:1085A0000949084816F0D4FE0949064816F0D0FEDD
:1085B0001449044816F0CCFE1349024816F0C8FED0
:1085C000ACE700BF98B3002060460400B847040041
:1085D000E8470400C8480400FC4804001C490400A3
:1085E00038490400544904007C49040098490400B7
:1085F000B4490400E04904001C4A0400444A040051
:108600001448040040480400844804002DE9F04F59
:10861000DFF874A3DFF87493A3B0D34C204617F0AF
:1086200079F8002840F3B58404F0B4F8204617F038
:108630008FF8C0B220385528F0D801A353F820F0A5
:10864000098C02001D8602001D8602001D860200A4
:108650001D8602001D8602001D8602001D86020086
:108660001D8602001D8602001D8602001D86020076
:108670001D8602001D8602001D8602001D86020066
:108680001D8602001D8602001D8602001D86020056
:108690001D8602001D8602001D8602001D86020046
:1086A0001D8602001D8602001D8602001D86020036
:1086B0001D8602001D8602001D8602001D86020026
:1086C0001D8602001D8602001D8602001D86020016
:1086D0001D8602001D8602001D8602001D86020006
:1086E0001D8602001D8602001D8602001D860200F6
:1086F0001D8602001D8602001D8602001D860200E6
:108700001D8602001D8602001D8602001D860200D5
:108710001D8602001D8602001D8602001D860200C5
:108720001D8602001D8602001D8602001D860200B5
:108730001D8602001D8602001D8602001D860200A5
:108740001D8602001D860200BD8B0200B38B020055
:10875000538C02004B8C02001D860200598C0200D3
:10876000478A0200B18A02001D860200F1880200D9
:108770001D860200DD8702001D8602001D860200A4
:108780009F8702001D860200C58F02001D86020021
:108790001D8602009987020016F08EFB3DE7734CA0
:1087A000237B2578032B00F21A84DFE813F05802AC
:1087B0006B0204000400632D606840F2ED8318F042
:1087C0006DFA15AC02460B4600956949204619F032
:1087D0006FFB2146644816F0BBFD1EE76548664DF9
:1087E000664E17F0A3FC664817F0A0FC0020FFF7C8
:1087F00077FE0FCD09AC05940FC40FCD0FC495E8DB
:108800000F0007C43268237012F0010200F0A58344
:108810005C48036813F0010300F09183DFF848819E
:10882000404616F077FF0446002840F05C8303F0D2
:10883000B1FF0DF12303059D069314E0DAE9000171
:108840004FF000033246FFF70BFEDAF804108142C6
:1088500000F0288214ABB34206D101350DF151036B
:10886000AB4200F00483069E95F800B016F8017F35
:108870005846012116F03AFC3846032116F036FC22
:108880005846002116F072FC384616F08DFC012186
:1088900003465846079316F069FC384616F084FCE8
:1088A000002102465846934616F020FC3846002127
:1088B00016F01CFC079B13F0FF0FCBD11BF0FF0F32
:1088C000C8D0D9E900012A46FFF7CAFDD9F804103B
:1088D0008142B3D1D9F80830994200F0BC822B789C
:1088E0000B70D9F804300133C9F804300124A5E72E
:1088F0002048214D214E17F019FC214817F016FC95
:108900000120FFF7EDFD0FCD09AC05940FC40FCD8D
:108910000FC495E80F0007C43268237012F00102FB
:1089200000F029831748036813F0010300F0F9826F
:10893000DFF83480404616F0EDFE002840F0598202
:1089400003F028FFD9E90032934218BFC9F8043078
:10895000DAE90032934218BFCAF804300DF123035C
:10896000059C0693002628E098B30020906800201C
:10897000F04F04007C6A002088470400C067002094
:10898000A8680020BC670020C8670020D8670020C6
:10899000DAE900014FF000032A46FFF761FDDAF83B
:1089A0000410814200F0AA8214ABAB4206D101341C
:1089B0000DF15103A34200F0E181069D94F800B04F
:1089C00015F8017F5846012116F090FB3846032127
:1089D00016F08CFB5846002116F0C8FB384616F0FE
:1089E000E3FB012103465846079316F0BFFB3846C8
:1089F00016F0DAFB002102465846934616F076FB45
:108A00003846002116F072FB079B13F0FF0FCBD105
:108A10001BF0FF0FC8D0D9E900012246FFF720FD67
:108A2000D9F8043098420146B2D1D9F808309842BA
:108A300000F0468123780370D9F804300133C9F877
:108A400004300126A4E7A149A14816F081FCA14900
:108A50009F4816F07DFCA0499D4816F079FC9F497F
:108A60009B4816F075FC9E49994816F071FC9D498B
:108A7000974816F06DFC9C49954816F069FC9B4997
:108A8000934816F065FC9A49914816F061FC9949A3
:108A90008F4816F05DFC98498D4816F059FC9749AF
:108AA0008B4816F055FC8949894816F051FCB4E50D
:108AB00093498748934D16F04BFC8449844816F03F
:108AC00047FC9149824816F0F5FB904B80481968A5
:108AD000102216F0FFFC8E4B7D4819684FF0805431
:108AE000102216F00BFDD4F800218A49D4F8043185
:108AF000774816F07DFCD4F810218749D4F80C3162
:108B0000734816F075FC8549714816F021FC8449BC
:108B10006F4816F01DFC83496D4815AC16F018FC23
:108B20006A496B4816F014FC002300227E49204657
:108B300019F0BEF92146664816F00AFC6FF059029A
:108B40007A49204619F0B4F92146614816F000FC34
:108B500077495F4816F0FCFB95F98220754905F1CD
:108B60006003204619F0A4F92146594816F0F0FB9D
:108B700095F95E20704905F13C03204619F098F9FB
:108B80002146534816F0E4FB95F9A6206B4905F100
:108B90008403204619F08CF921464D4816F0D8FB85
:108BA0004A494B4816F0D4FB17F0E0FB17F0FCFAEB
:108BB00033E500F0F1FA02F011FF2EE56049444878
:108BC00016F0C6FB5F49424816F0C2FB404816F05B
:108BD0009FFB5D493E4816F0BBFB012007F086FB7A
:108BE000022007F083FB594804F094F9384816F046
:108BF0008FFB5749364816F0ABFB012007F076FB98
:108C0000022007F073FB08E55249314816F0A0FB3B
:108C100051492F4816F09CFB50492D4816F098FBFF
:108C20004F492B4816F094FB4E49294816F090FB0B
:108C30004D49274816F08CFB2449254816F088FB3F
:108C40004A49234816F084FBE7E4494809F056FCFA
:108C5000E3E416F039F9E0E4FFF7ACFADDE460682C
:108C600018F01CF802460B46A068CDE9022318F064
:108C700015F815ACCDE900013E4A2046322119F025
:108C8000E3F8A6E5632D6068029540F2908118F044
:108C900005F815ACCDE90001374A2046322119F01C
:108CA000D3F896E5DAF80830994200F0DA803378A4
:108CB0000B70DAF804300133CAF804300124C9E536
:108CC00022464846FFF76AFB012661E6504704004A
:108CD00098B30020A04D0400DC4D04001C4E04009D
:108CE000584E0400944E0400C84E0400144F040073
:108CF000304F04004C4F0400604F04007C4F0400D0
:108D0000D04A0400BC690020E84A0400600000105A
:108D100064000010F84A0400144B0400404B0400A7
:108D20005C4B04007C4B04009C4B0400B04B0400E3
:108D3000C44B0400D84B0400E84B0400F84B04007B
:108D40009C4A0400F0460400A84A0400E89300206E
:108D5000BC4A0400084C04004C4C0400904C040035
:108D6000D44C0400184D04005C4D0400A4460400DB
:108D700068970020A04F0400C04F0400002E3FF46D
:108D8000D9AD9849404616F095FAD9E90045AC426C
:108D90000CD0954E14F8011B0A22404616F0A6FB93
:108DA0003146404616F086FAA542F3D18F49404637
:108DB00016F0CEFA8E49404616F07CFADAE9004504
:108DC000AC420CD0884E14F8011B0A22404616F023
:108DD0008DFB3146404616F06DFAA542F3D183492A
:108DE000404616F0B5FA404616F094FC00283FF4D1
:108DF000A7AD804C01E016F0ABFC204616F08AFCD3
:108E000000282046F7DCD9E90032934218BFC9F8A0
:108E10000430DAE9003278497648934218BFCAF83C
:108E2000043016F095FA7549724816F091FA7249B5
:108E3000704816F08DFA72496E4816F089FA714939
:108E40006C4816F085FA704817F03CF96F4817F037
:108E500039F9FFF7E2BB2A464846FFF79FFA01249B
:108E6000ECE432465046FFF799FA0124F2E4002C74
:108E70003FF4D6AC5B49404616F01CFAD9E90045F0
:108E8000AC420CD0584E14F8011B0A22404616F092
:108E90002DFB3146404616F00DFAA542F3D1534959
:108EA000404616F055FA5249404616F003FADAE900
:108EB0000045AC420CD04C4E14F8011B0A2240462F
:108EC00016F014FB3146404616F0F4F9A542F3D1F2
:108ED0004649404616F03CFA404616F01BFC044654
:108EE00000283FF4A4AC434C01E016F031FC2046CE
:108EF00016F010FC00282046F7DC84E7DAF808308A
:108F0000994208D02B780B70DAF804300133CAF894
:108F10000430012648E52A465046FFF73FFA01266D
:108F200042E5CAF808300123002400250360384ACE
:108F300038495046CAE9004517F03EFFF8E4CAF840
:108F400008300123002400250360314A314950468E
:108F5000CAE9004517F030FF60E400200021C9E9AC
:108F60000001C9F808200123294A2A4933604846EC
:108F700017F022FF4CE400200021C9E90001C9F8E4
:108F800008200123224A23493360484617F014FF82
:108F9000C8E423B0BDE8F08F17F080FE15AC0246A0
:108FA0000B4600951C49204618F082FF11E417F08B
:108FB00075FE15ACCDE90001184A2046322118F0A3
:108FC00043FF06E4BFF34F8F1549164BCA6802F4FE
:108FD000E0621343CB60BFF34F8F00BFFDE715ACDA
:108FE000FFF7F7BB844A0400984A04008C4A040047
:108FF000904A040098B3002060460400DC46040058
:1090000050470400A44604007C6A0020A8680020A1
:1090100000600020A581020008500400D84F040021
:1090200000ED00E00400FA05BFF34F8F0549064B41
:10903000CA6802F4E0621343CB60BFF34F8F00BFF6
:10904000FDE700BF00ED00E00400FA0532DF7047E5
:1090500041DF704710B50446006808B116F054FFB0
:10906000204610BD70B5474C474DFDF705FEE3683F
:109070002668984238BF1846E060FDF7FDFD361AB5
:10908000FEF78AFD2268636AA968D31A8B4247D922
:10909000B6F57A7F8CBF02230023D4E90A01101AA7
:1090A000FB28A2EB010195F8210028BF0323B1F5AD
:1090B000FA7F88BF0123C0B1216B511A322914D91C
:1090C00095F8203073B30623616B511A322910D9F9
:1090D000A36BD31A642B29D830466263FEF738FBA2
:1090E0006869BDE8704012F0ADBE95F82010002907
:1090F000EAD1A16B511A642918D8013B052BEFD88E
:1091000001A151F823F000BF499102004D910200E6
:109110006F9102002D910200D99002003F91020050
:109120000023BAE7A36BD31A642B08D91748A263AC
:1091300003F07CFA6869BDE8704012F083BE3046E7
:109140002263FEF77FFBCBE7E262C9E7104E3046B1
:1091500003F080F8D6E90121337B307884F883303E
:10916000236884F85F00C4E906216362B8E795F8D4
:1091700029300848A26213B1FDF728FAB0E7FDF7DD
:1091800053FAADE7BC69002014690020846A00200E
:1091900090680020E4670020F0B41F4B1F4C204A69
:1091A0009A6194E80700002503F14806A3F84650A9
:1091B00003C6327003F1680603C640F201115984F8
:1091C0000521196047F230519960164FC3F8257098
:1091D00010214FF0800CC3E904C1012708204FF093
:1091E000FF31C3F81E50DD85C3F83650DD63C3F888
:1091F00042505D87A3F8405083F829705F8558601E
:10920000D86019639986327094E80700883303C3E5
:109210001A70F0BC704700BF146900202050040091
:109220000E0D0021010100012DE9F04F4D4BDFF83B
:10923000508185B01E46019312F0F8FDB246C8F881
:10924000000016F8010B022115F050FF464BB34207
:10925000F7D1464ADFF82C91002342F00102029335
:109260001F460092424E0121F05C15F03FFF029B29
:109270000021F05C3F4E15F079FF009B402098479D
:109280003D4A029B3D491278D1F810154FF0A0409D
:1092900003EB4303D0F8100503971A4406EBC20C06
:1092A000C04346F83200C94306EBC302CCF80410B1
:1092B000D2E9030156F83360D2E9013C5269034315
:1092C00046EA0C0643EA020B0E43002308E0D8F8F6
:1092D0000000FDF7C1FB039B0133052B039321DC49
:1092E0001AF8033059F82330C3F120020BFA02F2C6
:1092F00026FA03F0203B10432BFA03F3184300F047
:1093000001043D4654EA050303AA02A9DFD1D8F8B7
:10931000000003AA02A9FDF7B7FB039B0133052B4D
:109320000393DDDD029B124A0021D05C15F0DEFEC6
:10933000029B0133042B029394DD019C14F8010B72
:10934000002115F0D3FE084BA342F7D10A4A137847
:109350000133DBB2022B84BF074A0023137005B030
:10936000BDE8F08F186000201E60002070540400DB
:1093700020600020186800201468002000030050BE
:10938000BC690020187C0400224B1A8842F6AA13FC
:109390009A4200D0704730B41F4A1378202B14D85B
:1093A000202B20D8DFE803F02C15211F151F1F1FCD
:1093B000151F1F1F1F1F1F1F151F1F1F1F1F1F1FD1
:1093C0001F1F1F1F1F1F1F1F1500402B01D0802BA9
:1093D00009D1124B12481B78134435250124002172
:1093E0005D700470117030BC70470C4B0C481B78DA
:1093F00013443525012402215D7004701170F2E7D9
:10940000064B07491B781A442920012350700B7022
:10941000E9E700BF86650020B4650020CD65002027
:10942000CC65002008B50120FFF710FEBDE808401C
:10943000FFF70EBEF8B5D0E900638768BB4204466B
:10944000A1EB06061DD08B4294460D461A4611D05C
:1094500033F8020CBCF8007022F8020B981E81420F
:10946000626005D0421A981A17F05CFD20683044FB
:109470002F80F8BDBCF8001022F8021B184662606D
:10948000F8BDFDF7FFFB20683044F8BD2DE9F0473B
:109490000746294E17F8013BD6F800C082B0002BD2
:1094A0003BD0DFF898806446B14616E030F8022CD5
:1094B00021F8022B9C42A3EB04027160A0EB020096
:1094C000214605D017F02EFDD6F800C00CEB0A039C
:1094D00025801C4617F8013BFBB118F8135008EB28
:1094E0004303D6E90102002D5B7814BF4FF40075E9
:1094F00000251D4390420146A0F10203ADF806503D
:10950000A4EB0C0A0CD0A0422246CFD122F8025B79
:10951000726017F8013B002BDFD102B0BDE8F08785
:1095200021460DF106024846FDF7ACFBD6F800C017
:109530000CEB0A04CEE700BF08680020285804009E
:109540002DE9F04342F2A603984297B001F06D81F5
:1095500000F2188141F2A613984201F0298140F2ED
:10956000CF8041F6AB13984201F0FB8040F282803D
:1095700041F6A653984201F0E98048D941F6AB6321
:10958000984201F0BE8030D941F6A673984201F0AE
:10959000418141F6AB73984224D1CD4C40F26243F5
:1095A0002168ADF8243009AA2046FFF743FF40F2B6
:1095B0005A432168ADF8243009AA2046FFF73AFF44
:1095C00040F25C432168ADF8243009AA2046FFF739
:1095D00031FF40F25B432168ADF8243009AA2046F0
:1095E000FFF728FF17B0BDE8F08341F6AB53984270
:1095F00001F0EB8041F6A6639842F3D1B54B93F8A6
:10960000AB30002BEED0B448FFF740FFEAE741F65D
:10961000AB33984201F059844BD941F6A6439842A6
:1096200001F0488441F6AB439842DBD1A84C09AA2B
:10963000216840F262452046ADF82450FFF7FAFE5B
:1096400040F25A432168ADF8243009AA2046FFF7BA
:10965000F1FE2168ADF8245009AA2046FFF7EAFE82
:1096600040F25C432168ADF8243009AA2046FFF798
:10967000E1FEB7E741F2A653984201F0EF8340F2D2
:109680007A8341F6A603984201F0DD8324D941F69E
:10969000AB03984201F0018541F6A6139842A1D18F
:1096A0008C4B93F8AB30002B9CD08C48FFF7EEFE30
:1096B00098E741F6AB23984201F05A8441F6A6336D
:1096C000984240F09483834B93F8AB30002B89D0C1
:1096D0008348FFF7DBFE85E741F2A663984201F07D
:1096E0001B8441F2A67398427FF47CAF794B93F8C8
:1096F000AB30002B3FF476AF7A48FFF7C7FE71E737
:1097000040F6AB23984201F05A8440F2A58240F61D
:10971000A663984201F0AD8240F2618240F6AB73DD
:10972000984201F0468377D941F2A603984201F0AE
:10973000358341F2AB0398427FF454AF644C40F25E
:1097400062432168ADF8243009AA2046FFF772FE73
:1097500040F25A452168ADF8245009AA2046FFF787
:1097600069FE216809AA40F25B432046ADF8243027
:10977000FFF760FE2168ADF8245009AA2046FFF7E4
:1097800059FE2FE743F6AB33984201F0378340F29E
:10979000E58044F2A623984201F0F58240F2A480CD
:1097A00044F2AB53984201F06C8578D946F6A61383
:1097B000984201F05D8542D946F6AB13984201F01C
:1097C000878546F6AB2398427FF40CAF404C09AA3C
:1097D000216840F262432046ADF82430FFF72AFEAC
:1097E000216809AA40F259432046ADF82430FFF71A
:1097F00021FE216809AA40F25F432046ADF82430DB
:10980000FFF718FE40F25E432168ADF8243009AA44
:109810002046FFF70FFEE5E640F6AB63984201F005
:10982000AE8440F6A67398427FF4DCAE294B93F8E1
:10983000AB30002B40F0EA84FDF7D4FED2E646F6CA
:10984000A603984201F0008246F6AB0398427FF4EB
:10985000C9AE1F4C09AA216840F262432046ADF808
:109860002430FFF7E7FD216809AA40F2594320465A
:10987000ADF82430FFF7DEFD216809AA40F25D4310
:109880002046ADF82430FFF7D5FD40F25C43216857
:10989000ADF8243009AA2046FFF7CCFDA2E644F239
:1098A000A643984201F0C68140F2808044F2AB4367
:1098B000984200F0018744F2A65398427FF492AE9A
:1098C000044A92F8AB3083F0010382F8AB3089E6AA
:1098D00008680020BC69002058510400245104008D
:1098E000405104000851040043F6A673984200F06A
:1098F0008C8540F26F8344F2AB03984200F05E85A2
:1099000040F20E8244F2A613984200F04B8544F2D6
:10991000AB1398427FF466AECC4C09AA216840F2A2
:109920006245204640F25A46ADF82450FFF782FDCA
:109930002168ADF8246009AA2046FFF77BFD216865
:10994000ADF8246009AA2046FFF774FD2168ADF840
:10995000245009AA2046FFF76DFD43E642F2AB63AF
:10996000984200F0F88440F2DD8042F6AB63984202
:1099700000F0CA8440F2A08043F6A623984201F08A
:10998000808340D943F6AB23984201F0538343F6DA
:10999000A63398427FF426AEAD4B93F8AB30002B44
:1099A0003FF420AEAB48FFF771FD1BE644F2A6334F
:1099B000984201F0998344F2AB33984251D1A34CC1
:1099C00009AA216840F262432046ADF82430FFF72F
:1099D00031FD40F25A432168ADF8243009AA2046EF
:1099E000FFF728FD40F25D452168ADF8245009AA33
:1099F0002046FFF71FFD2168ADF8245009AA204634
:109A0000FFF718FDEEE543F2AB63984200F0738771
:109A100043F2AB7398427FF4E5AD8C4C09AA216800
:109A200040F262452046ADF82450FFF703FD40F2B6
:109A30005A432168ADF8243009AA2046FFF7FAFC02
:109A40002168ADF8245009AA2046FFF7F3FC40F244
:109A50005E432168ADF8243009AA2046FFF7EAFCEE
:109A6000C0E544F2AB2398427FF4BCAD774C09AA21
:109A7000216840F262432046ADF82430FFF7DAFC5B
:109A8000216809AA40F25A432046ADF82430FFF776
:109A9000D1FC216809AA40F25D432046ADF824308C
:109AA000FFF7C8FC40F25B432168ADF8243009AAF7
:109AB0002046FFF7BFFC95E542F6AB23984200F045
:109AC000F38651D942F6AB43984200F0978742F6AD
:109AD000AB5398427FF486AD5C4C09AA216840F2F2
:109AE00062432046ADF82430FFF7A4FC216809AAA0
:109AF00040F259432046ADF82430FFF79BFC216823
:109B000009AA40F25D432046ADF82430FFF792FCED
:109B100040F25C432168ADF8243009AA2046FFF7E3
:109B200089FC5FE542F2AB33984200F03A8740F29D
:109B3000248242F2A653984200F0278721D942F2AC
:109B4000AB53984200F0FC8642F2A66398427FF441
:109B500049AD3F4B93F8AB30002B40F0538342F2BA
:109B6000A660FDF769FE3DE542F2AB73984200F056
:109B7000748642F6A613984240F0628215F09CF972
:109B800030E542F2A643984200F05B8642F2AB43D6
:109B900098427FF427AD2D4C09AA216840F2624318
:109BA0002046ADF82430FFF745FC40F25A432168C7
:109BB000ADF8243009AA2046FFF73CFC40F2594595
:109BC0002168ADF8245009AA2046FFF733FC21682C
:109BD000ADF8245009AA2046FFF72CFC02E540F618
:109BE000AB43984200F0428356D940F6A6539842C0
:109BF00001F0BA8240F6AB5398427FF4F3AC134CB9
:109C000009AA216840F262432046ADF82430FFF7EC
:109C100011FC216809AA40F259432046ADF82430CE
:109C2000FFF708FC216809AA40F261432046ADF81D
:109C30002430FFF7FFFB40F25E432168ADF824308B
:109C400009AA2046FFF7F6FBCCE400BF0868002015
:109C5000BC6900200852040040F2A673984201F04B
:109C60007F8240F2048140F6A613984201F06D8293
:109C700028D940F6AB13984201F0D38240F6A623D0
:109C800098427FF4AFACCB4B93F8AB30002B40F055
:109C9000B582FDF7C1FCA5E440F6AB33984201F074
:109CA000998240F6A643984240F01681C14B93F842
:109CB000AB30002B40F09E820320FDF75DFCFDF7EA
:109CC000A3FC8FE440F6A603984201F07F8240F6A1
:109CD000AB03984240F0C581B74C40F26243216823
:109CE000ADF8243009AA2046FFF7A4FB40F25A45FC
:109CF0002168ADF8245009AA2046FFF79BFB216894
:109D0000ADF8245009AA2046FFF794FB4FF48C636A
:109D10002168ADF8243009AA2046FFF78BFB61E4E7
:109D200043F6AB7398427FF45DACA34C09AA21685B
:109D300040F262432046ADF82430FFF77BFB2168F8
:109D400009AA40F25A432046ADF82430FFF772FBCF
:109D5000216809AA40F259432046ADF82430FFF7A4
:109D600069FB4FF48C632168ADF8243009AA2046C2
:109D7000FFF760FB36E441F2A633984200F0F98722
:109D800045D941F2AB33984200F0CC8741F2A6436B
:109D900098427FF427AC874B884A93F8AB30002178
:109DA00082F82E10002B3FF41DAC834C8448FFF743
:109DB0006DFB28252168ADF8245009AA2046FFF73D
:109DC00039FB8048FFF762FB2168ADF8245009AAEF
:109DD0002046FFF72FFB7C48FFF758FB2168ADF8C2
:109DE000245009AA2046FFF725FBFFF7FBBB41F6ED
:109DF000A62398427FF4F6AB6E4B93F8AB30002B62
:109E00003FF4F0AB7148FFF741FBFFF7EBBB41F2CA
:109E1000A623984200F0628741F2AB2398426AD1B0
:109E2000654C09AA216840F262432046ADF824300F
:109E3000FFF700FB216809AA40F25A432046ADF81B
:109E40002430FFF7F7FA216809AA40F25B43204665
:109E5000ADF82430FFF7EEFA40F25C432168ADF82C
:109E6000243009AA2046FFF7E5FAFFF7BBBB40F212
:109E7000AB53984200F00D8767D940F2A663984231
:109E800000F0018740F2AB6398427FF4ABAB4A4CE1
:109E900040F262432168ADF8243009AA2046FFF75A
:109EA000C9FA40F25A452168ADF8245009AA204663
:109EB000FFF7C0FA2168ADF8245009AA2046FFF741
:109EC000B9FA40F25E432168ADF8243009AA204671
:109ED000FFF7B0FAFFF786BB40F6A63398427FF44F
:109EE00081AB344B93F8AB30002B3FF4D2AE384803
:109EF000FFF7CCFACDE641F2AB1398427FF472AB98
:109F00002D4C09AA216840F262432046ADF8243066
:109F1000FFF790FA40F25A432168ADF8243009AABD
:109F20002046FFF787FA40F25B452168ADF82450E0
:109F300009AA2046FFF77EFA2168ADF8245009AA45
:109F40002046FFF777FAFFF74DBB40F2AB4398424C
:109F500000F0248640F2A653984240F0DC80174877
:109F6000144A90F82A3001214B4080F82A3082F8B8
:109F7000AF1082F8AC10FFF735BB42F2A62398422F
:109F800000F06B8640F2978042F2AB23984200F0DB
:109F9000DE8542F2A63398427FF424AB054B93F85A
:109FA000AB30002B40F03B8142F2A630FDF744FC81
:109FB000FFF718BBBC690020086800201469002066
:109FC0003C50040058500400645004003851040010
:109FD000B450040043F6AB53984201F0918040F234
:109FE000A18043F6A663984200F02F8543F6AB6349
:109FF00098427FF4F7AAB74C09AA216840F262435D
:10A000002046ADF82430FFF715FA40F25A43216894
:10A01000ADF8243009AA2046FFF70CFA40F2594562
:10A020002168ADF8245009AA2046FFF703FA2168F9
:10A03000ADF8245009AA2046FFF7FCF9FFF7D2BA81
:10A0400042F2A67398427FF4CDAAA34B93F8AB30AB
:10A05000002B40F0E08042F2A670FDF7EDFBFFF729
:10A06000C1BA40F2AB7398427FF4BCAA994C40F25B
:10A0700062432168ADF8243009AA2046FFF7DAF9D7
:10A0800040F25A452168ADF8245009AA2046FFF74E
:10A09000D1F92168ADF8245009AA2046FFF7CAF982
:10A0A00040F25F432168ADF8243009AA2046FFF74B
:10A0B000C1F9FFF797BA42F2A613984200F0FD806B
:10A0C00042F2AB13984240D1824C09AA216840F277
:10A0D00062432046ADF82430FFF7ACF9216809AAA5
:10A0E00040F25A432046ADF82430FFF7A3F9216827
:10A0F00009AA40F25C432046ADF82430FFF79AF9F4
:10A1000040F25D432168ADF8243009AA2046FFF7EC
:10A1100091F9FFF767BA40F2A64398427FF462AA2A
:10A12000FEF782FF43F6AB43984200F05C8543F6AE
:10A13000A653984233D1694C237B2678032B01F236
:10A140008E81DFE803F080703C3C42F2AB03984222
:10A150007FF448AA5F4C09AA216840F26243204676
:10A16000ADF82430FFF766F940F25A432168ADF8A4
:10A17000243009AA2046FFF75DF940F25C452168CA
:10A18000ADF8245009AA2046FFF754F92168ADF82C
:10A19000245009AA2046FFF74DF9FFF723BA43F6EA
:10A1A000A64398427FF41EAA4B4B93F8AB30002B8A
:10A1B0003FF418AA4A48FFF769F9FFF713BA632E6C
:10A1C000606841F2348116F069FD09AD02460B4624
:10A1D00000964449284617F06BFE2846FFF756F9CB
:10A1E0003C4828230168ADF81C3007AAFFF722F984
:10A1F000FFF7F8B93C48FFF749F95DE53B48FFF741
:10A2000045F946E53A48FFF741F9A8E43948FFF730
:10A210003DF9FFF711BB3848FFF738F91BE737481E
:10A22000FFF734F9C0E6632E6068029641F20B81B5
:10A2300016F034FD09ADCDE90001314A284632213E
:10A2400017F002FEC9E7606816F028FD02460B46CB
:10A25000A068CDE9022316F021FD09ADCDE900018A
:10A26000284A2846322117F0EFFDB6E7194C09AA13
:10A27000216840F262432046ADF82430FFF7DAF857
:10A28000216809AA40F259432046ADF82430FFF76F
:10A29000D1F8216809AA40F261432046ADF8243084
:10A2A000FFF7C8F840F25D432168ADF8243009AAF1
:10A2B0002046FFF7BFF8FFF795B9074B93F8AB308F
:10A2C000002B41F07B8042F2A610FDF7B5FAFFF7B4
:10A2D00089B900BF08680020BC6900209068002090
:10A2E00010520400F04F0400BC500400AC500400B5
:10A2F000D0510400D4500400E0510400A0510400E7
:10A30000C04F0400A04F0400D84C09AA216840F2B5
:10A3100062432046ADF82430FFF78CF8216809AA83
:10A3200040F259432046ADF82430FFF783F8216806
:10A3300009AA40F25B432046ADF82430FFF77AF8D3
:10A340004FF48C632168ADF8243009AA2046FFF74A
:10A3500071F8FFF747B9C54C09AA216840F262437A
:10A360002046ADF82430FFF765F8216809AA40F2CD
:10A370005A432046ADF82430FFF75CF8216809AA5B
:10A3800040F259432046ADF82430FFF753F840F22D
:10A390005B432168ADF8243009AA2046FFF74AF84C
:10A3A000FFF720B9B24BB3490122002081F82F00FA
:10A3B00083F8AF2083F8AC20FFF714B9AB4C09AA9F
:10A3C000216840F262432046ADF82430FFF732F8AE
:10A3D000216809AA40F25A432046ADF82430FFF71D
:10A3E00029F8216809AA40F259432046ADF82430E3
:10A3F000FFF720F840F261432168ADF8243009AA44
:10A400002046FFF717F8FFF7EDB8984C9A48DFF8A9
:10A410006092984E09AD4FF02808FFF737F8216891
:10A42000ADF824802A462046FFF704F8934900221D
:10A43000284607AF17F03CFD2846FFF727F82168AC
:10A44000ADF81C803A462046FEF7F4FF8C496FF0C9
:10A450005902284617F02CFD2846FFF717F8216807
:10A46000ADF81C803A462046FEF7E4FF8548FFF72A
:10A470000DF82168ADF81C803A462046FEF7DAFF59
:10A4800009F1600399F982207F49284617F010FDF1
:10A490002846FEF7FBFF2168ADF81C803A462046AF
:10A4A000FEF7C8FF09F13C0399F95E207749284679
:10A4B00017F0FEFC2846FEF7E9FF2168ADF81C8086
:10A4C0003A462046FEF7B6FF09F1840399F9A62023
:10A4D0006F49284617F0ECFC2846FEF7D7FF06F137
:10A4E00048092168ADF81C803A462046FEF7A2FFD5
:10A4F00068494A46284617F0DBFC2846FEF7C6FFA7
:10A5000096F8360096F8371096F8382096F83930D5
:10A510000093CDE90309CDE90121284696F83A30A8
:10A5200096F83B205C4917F0C3FC2846FEF7AEFFC7
:10A5300096F82F30002B00F03C87DFF874812168FB
:10A540004A4828233A46ADF81C30FEF773FF5349BA
:10A550004246284617F0ACFC2846FEF797FF96F8CF
:10A560003C0096F83D1096F83E2096F83F30009358
:10A57000CDE90308CDE90121284696F8403096F848
:10A580004120474917F094FC2846FEF77FFF96F8D4
:10A590002F30012B00F04687DFF8188121683348FF
:10A5A00028233A46ADF81C30FEF744FF3D494246A9
:10A5B000284617F07DFC2846FEF768FF96F8420013
:10A5C00096F8431096F8442096F845300093CDE96C
:10A5D0000308CDE90121284696F8463096F8472031
:10A5E000314917F065FC2846FEF750FF96F82F30EA
:10A5F000022B00F01287282621681C48ADF81C6049
:10A600003A46FEF717FF21681848ADF81C603A4635
:10A61000FEF710FF3846FDF777FA9DF81D009DF80C
:10A620001E109DF81F209DF82030CDE90210CDE9C5
:10A6300000321E499DF821309DF82220284617F04F
:10A6400037FC2846FEF722FF21680848ADF81A605B
:10A650000DF11A02FEF7EEFE21680448ADF81A600B
:10A660000DF11A02FEF7E6FEFEF7BCBF08680020F7
:10A67000BC69002014690020DC520400F45204007C
:10A68000B04B0400C44B0400D84B0400E84B04005A
:10A69000F84B0400085304001853040054530400FA
:10A6A0006453040094530400A4530400D4530400DE
:10A6B0007C6900209C690020CC4C40F262432168F8
:10A6C000ADF8243009AA2046FEF7B4FE40F25A4500
:10A6D0002168ADF8245009AA2046FEF7ABFE216898
:10A6E000ADF8245009AA2046FEF7A4FE40F25943D3
:10A6F0002168ADF8243009AA2046FEF79BFEFEF73C
:10A7000071BFBA4C40F262432168ADF8243009AA07
:10A710002046FEF78FFE40F25A452168ADF82450DE
:10A7200009AA2046FEF786FE216809AA40F25C438A
:10A730002046ADF82430FEF77DFE2168ADF82450A8
:10A7400009AA2046FEF776FEFEF74CBFA84B93F809
:10A75000AB30002B3EF446AFA648FEF797FEFEF75F
:10A7600041BFA24C09AA216840F262432046ADF8DD
:10A770002430FEF75FFE216809AA40F25A432046C2
:10A78000ADF82430FEF756FE216809AA40F25B437B
:10A790002046ADF82430FEF74DFE40F25F432168BD
:10A7A000ADF8243009AA2046FEF744FEFEF71ABF92
:10A7B0008F4B93F8AB30002B40F0F6850120FCF76F
:10A7C000DBFEFCF721FFFEF70DBF884C09AA2168CC
:10A7D00040F262452046ADF82450FEF72BFE40F2D1
:10A7E0005A432168ADF8243009AA2046FEF722FE1C
:10A7F0002168ADF8245009AA2046FEF71BFE40F25E
:10A800005D432168ADF8243009AA2046FEF712FE08
:10A81000FEF7E8BE764B93F8AB30002B3EF4E2AE89
:10A820007548FEF733FEFEF7DDBE714B93F8AB3093
:10A83000002B40F0AF8542F2A600FCF7FDFFFEF7CB
:10A84000D1BE6B4B93F8AB30002B40F0A88542F2A1
:10A85000A640FCF7F1FFFEF7C5BE644C09AA2168CB
:10A8600040F262432046ADF82430FEF7E3FD216854
:10A8700009AA40F25A432046ADF82430FEF7DAFD2B
:10A88000216809AA40F259432046ADF82430FEF76A
:10A89000D1FD40F25C432168ADF8243009AA20467E
:10A8A000FEF7C8FDFEF79EBE504C09AA216840F293
:10A8B00062432046ADF82430FEF7BCFD216809AAAA
:10A8C00040F259432046ADF82430FEF7B3FD21682D
:10A8D00009AA40F25E432046ADF82430FEF7AAFDF7
:10A8E00040F25D432168ADF8243009AA2046FEF706
:10A8F000A1FDFEF777BE3D4C09AA216840F26245F2
:10A900002046ADF82450FEF795FD40F25A432168E9
:10A91000ADF8243009AA2046FEF78CFD2168ADF879
:10A92000245009AA2046FEF785FD40F25F432168C6
:10A93000ADF8243009AA2046FEF77CFDFEF752BE92
:10A940002A4C40F262432168ADF8243009AA20461F
:10A95000FEF770FD40F25A452168ADF8245009AA6F
:10A960002046FEF767FD216809AA40F259432046B8
:10A97000ADF82430FEF75EFD2168ADF8245009AA39
:10A980002046FEF757FDFEF72DBE194B93F8AB306E
:10A99000002B40F0E08442F2A650FCF74DFFFEF79A
:10A9A00021BE124C09AA216840F262452046ADF84A
:10A9B0002450FEF73FFD216809AA40F25A43204681
:10A9C000ADF82430FEF736FD216809AA40F259435C
:10A9D0002046ADF82430FEF72DFD2168ADF8245057
:10A9E00009AA2046FEF726FDFEF7FCBD08680020F8
:10A9F000BC6900205051040060510400BC4C09AAFD
:10AA0000216840F262432046ADF82430FEF712FD83
:10AA1000216809AA40F259432046ADF82430FEF7D8
:10AA200009FD216809AA40F25E432046ADF82430B2
:10AA3000FEF700FD40F25C432168ADF8243009AA1E
:10AA40002046FEF7F7FCFEF7CDBDA94CA948FEF75E
:10AA50001DFD28252168ADF8245009AA2046FEF7DF
:10AA6000E9FCA548FEF712FD2168ADF8245009AABB
:10AA70002046FEF7DFFCA148FEF708FD2168ADF88F
:10AA8000245009AA2046FEF7D5FC9D48FEF7FEFC9F
:10AA90002168ADF8245009AA2046FEF7CBFC14F03B
:10AAA00073F99849024609A817F002FA07AF09A8F6
:10AAB000FEF7ECFC2168ADF81C503A462046FEF744
:10AAC000B9FC14F0A1F99049024609A817F0F0F971
:10AAD00009A8FEF7DBFC2168ADF81C503A46204679
:10AAE000FEF7A8FC00238949002209A817F0E0F925
:10AAF00009A8FEF7CBFC2168ADF81C503A46204669
:10AB0000FEF798FC824B93F82E30012B00F07684F0
:10AB1000022B00F07184002B00F062847D4B93F8CF
:10AB2000A730012B00F04F84022B00F06984002B2A
:10AB30007EF458AD7848FEF7A9FC282321686C48BC
:10AB4000ADF81C303A46FEF775FCFEF74BBD684C7D
:10AB500009AA216840F262432046ADF82430FEF78E
:10AB600069FC216809AA40F25A432046ADF8243016
:10AB7000FEF760FC216809AA40F25C432046ADF86C
:10AB80002430FEF757FC40F25E432168ADF82430D4
:10AB900009AA2046FEF74EFCFEF724BD544C40F2B5
:10ABA00062432168ADF8243009AA2046FEF742FC32
:10ABB00040F25A452168ADF8245009AA2046FEF714
:10ABC00039FC2168ADF8245009AA2046FEF732FC72
:10ABD00040F25C432168ADF8243009AA2046FEF714
:10ABE00029FCFEF7FFBC424C09AA216840F26243EF
:10ABF0002046ADF82430FEF71DFC216809AA40F27A
:10AC00005A432046ADF82430FEF714FC216809AA07
:10AC100040F25D432046ADF82430FEF70BFC40F2D5
:10AC200059432168ADF8243009AA2046FEF702FCFA
:10AC3000FEF7D8BC374B93F8A730012B3EF4D2ACCB
:10AC400001F0B4FDFEF7CEBC3449354801F0DEFB1F
:10AC5000334801F0FFFAFEF7C5BC2E4B93F8AB303A
:10AC6000002B40F06C8342F2A620FCF7E5FDFEF7D6
:10AC7000B9BC284B93F8AB30002B40F05883FCF75D
:10AC80009BFCFEF7AFBC234B012283F8AE20FEF7FE
:10AC9000A9BC174C40F262432168ADF8243009AAE0
:10ACA0002046FEF7C7FB40F25A452168ADF8245014
:10ACB00009AA2046FEF7BEFB2168ADF8245009AA78
:10ACC0002046FEF7B7FB40F25D432168ADF8243023
:10ACD00009AA2046FEF7AEFBFEF784BC0D4B93F8A5
:10ACE000AB30002B40F02F83FCF74CFCFEF77ABC16
:10ACF00008680020404B04005C4B04007C4B0400BF
:10AD00001852040034520400485204009C4B0400C2
:10AD100014690020BC690020CC520400FDC0020070
:10AD200090680020B94C09AA216840F2624320468D
:10AD3000ADF82430FEF77EFB216809AA40F25A43A1
:10AD40002046ADF82430FEF775FB216809AA40F2D1
:10AD50005B432046ADF82430FEF76CFB40F25D43C8
:10AD60002168ADF8243009AA2046FEF763FBFEF700
:10AD700039BCA74B93F8AB30002B40F0DC82FCF7DA
:10AD80000FFCFEF72FBCA24AA249012381F82F3005
:10AD900082F8AF3082F8AC30FEF724BC9C4B93F8BD
:10ADA000AB30002B40F0D3820220FCF7E5FBFEF72E
:10ADB00019BC964C09AA216840F262432046ADF8BE
:10ADC0002430FEF737FB40F259432168ADF82430B8
:10ADD00009AA2046FEF72EFB40F261452168ADF836
:10ADE000245009AA2046FEF725FB2168ADF824501F
:10ADF00009AA2046FEF71EFBFEF7F4BB834C09AA06
:10AE0000216840F262452046ADF82450FEF712FB5F
:10AE1000216809AA40F25A432046ADF82430FEF7D3
:10AE200009FB216809AA40F25D432046ADF82430B1
:10AE3000FEF700FB2168ADF8245009AA2046FEF772
:10AE4000F9FAFEF7CFBB724B93F8AB30002B3EF410
:10AE5000C9AB7148FEF71AFBFEF7C4BB6C4B6D4AD9
:10AE600093F8AB30012182F82E10002B3EF4BAABE0
:10AE7000664C6A48FEF70AFB28252168ADF8245085
:10AE800009AA2046FEF7D6FA6548FEF7FFFA2168C0
:10AE9000ADF8245009AA2046FEF7CCFA6148FEF727
:10AEA000F5FA2168ADF8245009AA2046FEF7C2FA47
:10AEB000FEF798BB564B93F8AB30002B3EF492ABA9
:10AEC0005948FEF7E3FAFEF78DBB504C09AA2168FA
:10AED00040F262432046ADF82430FEF7ABFA216819
:10AEE00009AA40F25A432046ADF82430FEF7A2FAF0
:10AEF000216809AA40F25B432046ADF82430FEF7F2
:10AF000099FA40F261432168ADF8243009AA20463D
:10AF1000FEF790FAFEF766BB3D4B3E4A93F8AB3026
:10AF2000022182F82E10002B3EF45CAB374C3B48DC
:10AF3000FEF7ACFA28252168ADF8245009AA20466E
:10AF4000FEF778FA3948FEF7A1FA2168ADF82450E7
:10AF500009AA2046FEF76EFA3548FEF797FA2168EF
:10AF6000ADF8245009AA2046FEF764FAFEF73ABB72
:10AF7000264C09AA216840F262432046ADF82430ED
:10AF8000FEF758FA216809AA40F25A432046ADF864
:10AF90002430FEF74FFA216809AA40F25B432046AD
:10AFA000ADF82430FEF746FA4FF48C632168ADF813
:10AFB000243009AA2046FEF73DFAFEF713BB134CD6
:10AFC00009AA216840F262432046ADF82430FEF71A
:10AFD00031FA216809AA40F259432046ADF82430DD
:10AFE000FEF728FA216809AA40F261432046ADF82D
:10AFF0002430FEF71FFA40F25B432168ADF824309D
:10B0000009AA2046FEF716FAFEF7ECBA08680020F7
:10B01000BC69002014690020105104007050040025
:10B020008450040064500400485104005850040047
:10B0300098500400CA4C09AA216840F26243204695
:10B04000ADF82430FEF7F6F9216809AA40F25A4318
:10B050002046ADF82430FEF7EDF9216809AA40F248
:10B060005C432046ADF82430FEF7E4F940F261433A
:10B070002168ADF8243009AA2046FEF7DBF9FEF777
:10B08000B1BAB84B93F8AB30002B40F04C8143F68B
:10B09000A620FCF7D1FBFEF7A5BAB14C09AA21689E
:10B0A00040F262432046ADF82430FEF7C3F9216830
:10B0B00009AA40F25A432046ADF82430FEF7BAF907
:10B0C000216809AA40F25B432046ADF82430FEF720
:10B0D000B1F940F25E432168ADF8243009AA204658
:10B0E000FEF7A8F9FEF77EBA9E4B9F490122022087
:10B0F00081F82F0083F8AF2083F8AC20FEF772BAF6
:10B10000974C40F262432168ADF8243009AA2046EA
:10B11000FEF790F940F25A452168ADF8245009AA8B
:10B120002046FEF787F9216809AA40F25D432046D0
:10B13000ADF82430FEF77EF92168ADF8245009AA55
:10B140002046FEF777F9FEF74DBA864B93F8A72015
:10B15000022A7EF447AA012283F8AD20FEF742BA04
:10B1600013F0BAFEFEF73EBA7E4B93F8AB30002BDD
:10B1700040F0D5800020FCF7FFF9FEF733BA784C99
:10B1800009AA216840F262432046ADF82430FEF758
:10B1900051F9216809AA40F25A432046ADF82430FB
:10B1A000FEF748F9216809AA40F25B432046ADF852
:10B1B0002430FEF73FF940F259432168ADF82430BE
:10B1C00009AA2046FEF736F9FEF70CBA13F07CFE0A
:10B1D000FEF708BA624C09AA216840F26243204691
:10B1E000ADF82430FEF726F9216809AA40F2594348
:10B1F0002046ADF82430FEF71DF9216809AA40F277
:10B2000061432046ADF82430FEF714F940F25C4368
:10B210002168ADF8243009AA2046FEF70BF9FEF7A5
:10B22000E1B94F4C09AA216840F262432046ADF8CB
:10B230002430FEF7FFF8216809AA40F2594320465E
:10B24000ADF82430FEF7F6F8216809AA40F2614310
:10B250002046ADF82430FEF7EDF840F25A4321685D
:10B26000ADF8243009AA2046FEF7E4F8FEF7BAB993
:10B270003E493F4801F0CAF83D4800F0EBFFFEF7B9
:10B28000B1B9374C09AA216840F262432046ADF8B3
:10B290002430FEF7CFF8216809AA40F2594320462E
:10B2A000ADF82430FEF7C6F8216809AA40F25D43E4
:10B2B0002046ADF82430FEF7BDF840F26143216826
:10B2C000ADF8243009AA2046FEF7B4F8FEF78AB993
:10B2D000234C09AA216840F262432046ADF824308D
:10B2E000FEF7A8F8216809AA40F259432046ADF8B4
:10B2F0002430FEF79FF8216809AA40F25B432046FC
:10B30000ADF82430FEF796F84FF48C632168ADF861
:10B31000243009AA2046FEF78DF8FEF763B91548D8
:10B32000FEF7B4F826E71448FEF7B0F8AFE6134886
:10B33000FEF7ACF8A3E41248FEF7A8F81FE51148A1
:10B34000FEF7A4F88FE41048FEF7A0F8CCE40F480D
:10B35000FEF79CF828E50E48FEF798F8FFF71BBBB0
:10B3600008680020BC6900201469002011C4020094
:10B3700090680020C4500400F4510400CC50040034
:10B38000FC5004008C510400F0500400DC50040018
:10B39000C05104003348FEF779F8FFF74CBA324841
:10B3A000FEF774F8FFF753BA3048FEF76FF8FFF76F
:10B3B00005BA2F48FEF76AF8FFF7BFB82D48FEF729
:10B3C00065F8FEF780BF2C48FEF760F82823216857
:10B3D0002A48ADF81C303A46FEF72CF8FEF702B9C1
:10B3E0002748FEF753F82168ADF81C503A4620462E
:10B3F000FEF720F8FFF792BB2248F2E72248F0E779
:10B400002248FEF743F8282321681C48ADF81C3079
:10B410003A46FEF70FF8FEF7E5B81548FEF736F89E
:10B42000FFF7E9B81248FEF731F8FFF7B5B815F0A5
:10B4300035FC09AD02460B4600961549284616F024
:10B4400037FDFEF7CABE15F029FC09ADCDE90001B4
:10B45000104A2846322116F0F7FCFEF7BEBE09ADB1
:10B46000FEF7BBBE68510400B0510400E450040074
:10B470004853040078510400AC52040008680020CE
:10B480005C5204009052040074520400BC52040048
:10B4900008500400D84F04002DE9F84FD0E9008788
:10B4A000334B344E0546A7EB0800401003FB00F376
:10B4B000B34251D08A469346002B48D0B3EB430F9A
:10B4C0004FEA4302A1EB080422D9DFF8B0904846C6
:10B4D00014F0FAFC064681443319DBF80000DBF86F
:10B4E0000410BBF808203051002C59601A8113DC7D
:10B4F000A7EB0A070A34002F344422DC3C44B8F19D
:10B50000000F15D1C5E90064C5F80890BDE8F88FB3
:10B510002ABB91461646DFE7224641463046A7EB56
:10B520000A0715F0FFFC0A34002F344409DC3C44C0
:10B53000404614F0E9FCC5E90064C5F80890BDE890
:10B54000F88F51463A46204615F0DEFCD6E7A1EBCF
:10B5500008044FF00A09BAE70748FDF765FDB24253
:10B5600028BF32464FF00A0909FB02F9AFE700BFD6
:10B57000CDCCCCCCCCCCCC0C20460400F8FFFF7F4B
:10B580002DE9F041D0E901370668BB4284B004469A
:10B59000A1EB060838D08B420D46164626D01A4637
:10B5A000306852F80ACD716857683689C3F800C010
:10B5B0005F6012891A8101AB03C360681E80A0F12D
:10B5C0000A0200F10A039542636004D0521B801AFC
:10B5D000294615F0A7FC01AB03CB1B882B81286003
:10B5E00069602068404404B0BDE8F0811268716869
:10B5F00059601A6032891A8143680A3343602068AF
:10B60000404404B0BDE8F081FFF746FF20684044A5
:10B6100004B0BDE8F08100BF2DE9F0418B4C86B04D
:10B62000FBF70AFD2388002B40F09180884C23888B
:10B6300033B140F2A542934200F0BF800023238043
:10B64000844DD5E9002393426AD0834A834C127813
:10B650008DF80D2000268DF80C608DF81260CDF865
:10B660000E60ADF8146033F8027C33F8028D6B6025
:10B6700021687FBA204603AAADF80C70FFF780FF5F
:10B680006B6833F8023C43454FEA182000F08B808A
:10B69000D4E900739F4248D053F80A0D704D5968A1
:10B6A0006A46164603C695F8A71018893080012906
:10B6B000636000F09C80022957D000294CD09F4243
:10B6C00012D0684C2A68237823B96B68D31AB3F573
:10B6D0007A7F06D9644B6A601878FCF78DFA0023EC
:10B6E000237006B0BDE8F0815B4B95F8A7201B786E
:10B6F0008DF80D30012A4FF000038DF812308DF8CF
:10B700000C30CDF80E30ADF8143065D0022A58D088
:10B71000002AD6D1394603AA5048FFF731FFD0E7B7
:10B720004E4CD4E900739F42B6D1504B1C784CB3B9
:10B730004B4D95F8A730012B7ED0022B75D0002BF6
:10B74000BFD14B4A45483946FFF71AFFB9E7FDF725
:10B750001BFE0023238069E719464048FFF710FFCE
:10B76000D4E900739F42ACD1BEE707CAFCF758FA90
:10B77000404BD868400010F065FBD4E900739F424D
:10B780009FD1B1E73C4E3088002849D13B4C2088FE
:10B7900088B3334D95F8A730012B3ED0022B39D01A
:10B7A000002323808DE78DF80C0021688DF80D6053
:10B7B00003AA2046FFF7E4FE6AE73148FDF766FE7C
:10B7C0003CE706AB13E90700FCF72AFA294BD868D7
:10B7D000400010F037FB74E706AB13E9070001F0F7
:10B7E000B7F8244BD868400010F02CFB69E707CA73
:10B7F00001F0AEF8BCE7234C194D208800283FF437
:10B8000060AF95F8A730012B1DD0022BC8D1FCF7F3
:10B8100025FAC5E7FCF7EAFAC2E701F0ABF8BFE7A3
:10B82000FDF78EFE0E4D34804BE7114B18685968BA
:10B830001A89FCF7F5F944E70D4B186859681A891D
:10B8400001F086F83DE701F0A1F8A9E78665002040
:10B85000E2650020086800205C540400FC670020BA
:10B86000BC6900208865002066650020CC6500204A
:10B87000B465002014690020DA650020F06500201E
:10B880002C500400E465002010B5FDF7CDFCFFF757
:10B89000C3FEFBF7F1F91E4BD9681C68884238BF1C
:10B8A0000846844293F8A710D86006D9241A41B3F9
:10B8B00002291FD0092C03D910BD91B102290FD044
:10B8C000144801F003FB0028F6D1134803F004F8F4
:10B8D0000028F1D10146BDE810400F4803F008B838
:10B8E0000121002000F096FF0A4801F0EFFA00283D
:10B8F000E2D1EAE70121204600F08CFF092CDBD8D9
:10B90000DEE7204600F086FF092CD5D8D8E700BF37
:10B91000BC690020E893002084930020F8B51F4FF5
:10B920001F4D204C204E384614F0B0FB2A461F49CC
:10B93000384615F041FA204614F0A8FB2A461B4968
:10B9400020461B4C15F038FA1A491B4806F0A6FF92
:10B9500032462146194800F0A1FD324621461848DA
:10B96000FAF7D2FD324621461648FBF769F8164829
:10B9700000F0EAFB1548164900242A46C0E90044B5
:10B98000846015F019FA134813490460C0E90144B2
:10B990002A46BDE8F84015F00FBA00BF7C6A0020C7
:10B9A00000600020A8680020BC6900203D00040061
:10B9B0001469002068970020B0680020846A002085
:10B9C000E4670020786A0020906800200868002062
:10B9D000316A0200FC6700205590020008B50A4950
:10B9E0000A4806F033FE08490948012207F0A8F981
:10B9F00000B908BD07490648A82206F05BFEBDE86D
:10BA00000840034807F004B8005404006897002079
:10BA1000B06800201469002038B52D480CF02AFCCD
:10BA20002C492D48002207F08BF92B4807F018FA13
:10BA3000F8B12A492848A82206F074FF264806F0E3
:10BA4000E7FF264C2378052B2CD1254C0025658259
:10BA5000A4F8B05084F8B25084F8AB5010F0E6F976
:10BA600084F8A750C4E90000C4E90255C4F8AC50FA
:10BA700038BDFDF791FB1749154806F0E7FD15495C
:10BA80001548012207F05CF90028DAD01349124862
:10BA9000124CA82206F00EFE0F4806F0B9FF2378DC
:10BAA000052BD2D0FDF778FB0A49094806F0CEFDF8
:10BAB00008490948012207F043F90028C5D021466A
:10BAC000A822054806F0F6FD034806F0A1FFBCE7F2
:10BAD0006897002000540400B0680020146900201A
